:100000000C9469000C9491000C9491000C94910054
:100010000C9491000C9491000C9491000C9491001C
:100020000C9491000C9491000C9491000C9491000C
:100030000C9491000C9491000C9491000C949100FC
:100040000C94600A0C9491000C94D00A0C94AA0AA7
:100050000C9491000C9491000C9491000C949100DC
:100060000C9491000C9491001F1C1F1E1F1E1F1F3B
:100070001E1F1E1F00000000240027002A00000091
:100080000000250028002B000000000800020100ED
:100090000003040700000000000000000000000052
:1000A00023002600290004040404040404040202BA
:1000B00002020202030303030303010204081020E7
:1000C0004080010204081020010204081020020BE5
:1000D0005D1011241FBECFEFD8E0DEBFCDBF11E011
:1000E000A0E0B1E0EEE9F7E202C005900D92A83879
:1000F000B107D9F722E0A8E8B1E001C01D92AC3BFE
:10010000B207E1F710E0C8E6D0E004C02197FE0195
:100110000E94D010C736D107C9F70E94CD0B0C94AE
:10012000C2130C940000CF92DF92EF92FF92CF9314
:10013000DF93B0919E02A0E08111AB2F80919F02CE
:1001400090E0880F991FAC0144565F4FC090A40205
:10015000D090A502E090A602F090A70230E020E047
:10016000FA01C591D491E881B90190E080E0EB23D8
:10017000EA130AC02F5F3F4F6C157D058E059F0562
:1001800078F36FEF7FEFCB01DF91CF91FF90EF908E
:10019000DF90CF900895833081F028F4813099F07A
:1001A0008230A9F008958730A9F08830C9F08430F2
:1001B000B1F4809180008F7D03C0809180008F77A3
:1001C00080938000089584B58F7784BD089584B5A9
:1001D0008F7DFBCF8091B0008F778093B000089522
:1001E0008091B0008F7DF9CFCF93DF93282F30E03F
:1001F000F901E857FF4F8491F901E654FF4FD4917C
:10020000F901EA55FF4FC491CC23A1F081110E945E
:10021000CB00EC2FF0E0EE0FFF1FE456FF4FA5914F
:10022000B491EC91ED2381E090E009F480E0DF915E
:10023000CF91089580E090E0FACF1F93CF93DF93A2
:10024000282F30E0F901E857FF4F8491F901E65477
:10025000FF4FD491F901EA55FF4FC491CC23A9F087
:10026000162F81110E94CB00EC2FF0E0EE0FFF1F44
:10027000E258FF4FA591B4918FB7F894EC9111110A
:1002800008C0D095DE23DC938FBFDF91CF911F9103
:100290000895DE2BF8CFCF93DF9390E0FC01E65476
:1002A000FF4F24918A559F4FFC0184918823C9F008
:1002B00090E0880F991FFC01EC58FF4FA591B49175
:1002C000FC01E258FF4FC591D49161110DC09FB759
:1002D000F8948C91209582238C93888128232883FD
:1002E0009FBFDF91CF910895623051F49FB7F8948A
:1002F0003C91822F809583238C93E8812E2BEFCF26
:100300008FB7F894EC912E2B2C938FBFEACF3FB789
:10031000F89480918B0190918C01A0918D01B09106
:100320008E0126B5A89B05C02F3F19F00196A11D8F
:10033000B11D3FBFBA2FA92F982F8827BC01CD012F
:10034000620F711D811D911D42E0660F771F881F8E
:10035000991F4A95D1F708958F929F92AF92BF92BD
:10036000CF92DF92EF92FF924B015C010E948701D6
:100370006B017C010E9487016C197D098E099F0920
:10038000683E734081059105A8F321E0821A910827
:10039000A108B10888EEC80E83E0D81EE11CF11C4C
:1003A00081149104A104B10429F7FF90EF90DF902C
:1003B000CF90BF90AF909F908F900895CF92DF9293
:1003C000EF92FF920F931F93CF93DF93CDB7DEB7DA
:1003D000C054D1400FB6F894DEBF0FBECDBF2FB7CB
:1003E000F89480918F0190919001A0919101B0912A
:1003F00092012FBF4091A0025091A1026091A202F0
:100400007091A3028C019D01041B150B260B370B69
:10041000B901A801403D57406105710590F48091F4
:10042000A802C05CDE4F0FB6F894DEBF0FBECDBF92
:10043000DF91CF911F910F91FF90EF90DF90CF90C0
:1004400008958093A0029093A102A093A202B0937A
:10045000A30210929B0210929A021092990210929B
:1004600098021092970262E080919C020E944B01D8
:1004700061E070E080E090E00E94AC0161E080917A
:100480009C020E944B0160E080919C020E941D0131
:1004900080919D028551823020F58BE291E1019798
:1004A000F1F762E080919C020E944B018091A902C9
:1004B00090E08230910538F0880F991F880F991FBE
:1004C00005970197F1F7F89480E00E9493006F3F41
:1004D0007F4F8F4F9F4F61F41092A802789480E075
:1004E000A0CF64E170E080E090E00E94AC01D9CF41
:1004F00081E00E9493006F3F7F4F8F4F9F4F61F3CA
:100500008E010F5F1F4F6E018FEBC81A8EEFD80A56
:10051000780180E00E949300F701608371838283F9
:10052000938381E00E949300F7016483758386833F
:100530009783F8E0EF0EF11CEC14FD0451F778946A
:1005400030E020E0F801C080D180E280F380448177
:10055000558166817781FFEFCF16DF06EF06FF0634
:1005600031F04F3F8FEF58076807780719F4109262
:10057000A802B5CFF90183E0F595E7958A95E1F7F3
:10058000E956FD4F8081880FC416D506E606F706AA
:1005900010F180832F5F3F4F085F1F4F28323105D6
:1005A00089F640919B022091970280919802280F32
:1005B0003327331F80919902280F311D80919A02B1
:1005C000820F932F911D99274817190681F681E014
:1005D0008093A80226CF8160DCCFAF92BF92CF92EA
:1005E000DF92EF92FF920F931F93CF93DF936C01F3
:1005F0007B018B01040F151FEB015E01AE18BF08D4
:10060000C017D10759F06991D601ED91FC91019085
:10061000F081E02DC6010995892B79F7C501DF919D
:10062000CF911F910F91FF90EF90DF90CF90BF90EF
:10063000AF900895FC01538D448D252F30E0842F19
:1006400090E0821B930B541710F0CF9608950197FA
:100650000895FC01918D828D981761F0A28DAE0FE7
:10066000BF2FB11D5D968C91928D9F5F9F73928F6E
:1006700090E008958FEF9FEF0895FC01918D828D9A
:10068000981731F0828DE80FF11D858D90E0089567
:100690008FEF9FEF0895FC01918D228D892F90E0BF
:1006A000805C9F4F821B91098F739927089583E97E
:1006B00091E00E944B0321E0892B09F420E0822F76
:1006C000089580E090E0892B29F00E945703811162
:1006D0000C9400000895FC01A48DA80FB92FB11D42
:1006E000A35ABF4F2C91848D90E001968F73992768
:1006F000848FA689B7892C93A089B1898C91837046
:1007000080648C93938D848D981306C00288F3893E
:10071000E02D80818F7D80830895EF92FF920F936B
:100720001F93CF93DF93EC0181E0888F9B8D8C8D9D
:1007300098131AC0E889F989808185FF15C09FB791
:10074000F894EE89FF896083E889F9898081837054
:10075000806480839FBF81E090E0DF91CF911F9103
:100760000F91FF90EF900895F62E0B8D10E00F5F24
:100770001F4F0F731127E02E8C8D8E110CC00FB6FA
:1007800007FCFACFE889F989808185FFF5CFCE0192
:100790000E946B03F1CFEB8DEC0FFD2FF11DE35A9F
:1007A000FF4FF0829FB7F8940B8FEA89FB89808115
:1007B0008062CFCFCF93DF93EC01888D8823B9F08F
:1007C000AA89BB89E889F9898C9185FD03C080815C
:1007D00086FD0DC00FB607FCF7CF8C9185FFF2CFD9
:1007E000808185FFEDCFCE010E946B03E9CFDF91C1
:1007F000CF910895FC018781811181850895CF9261
:10080000DF92EF92FF920F931F93CF93DF93EC0150
:100810008FB7F894C0908F01D0909001E090910133
:10082000F09092018FBF88810E94F4009C018E811C
:1008300091E0811104C0232B21F490E002C0232B0E
:10084000E1F74E855F856889798997018601041BE8
:10085000150B260B370B49815A816B817C8104175C
:1008600015072607370778F41986CA86DB86EC86D3
:10087000FD868F81DF91CF911F910F91FF90EF90B7
:10088000DF90CF9008958F8188879F83292F282715
:100890002987981751F3CE86DF86E88AF98AE5CF53
:1008A000CF93DF93EC018D8160E0811162E088815C
:1008B0000E944B0188810E94F4009C0181E0211577
:1008C000310509F480E08F838E81882329F091E03F
:1008D000232B09F090E09F832FB7F89480918F012C
:1008E00090919001A0919101B09192012FBF8A87C0
:1008F0009B87AC87BD872F81288719868E879F8726
:10090000A88BB98BDF91CF910895DC0150E0E8E628
:10091000F0E081E0861730F49491490F511D8F5F0C
:100920003196F8CF633038F0CD0183709927892B49
:1009300011F44F5F5F4F9D012D5F3F4F3695279517
:10094000369527956DE671E0A69FC001A79F900D93
:10095000B69F900D11240197820F931F840F951F4E
:100960000895FC019F012F5F3F4F80818F7E803271
:1009700069F080E02AE0919130ED390F3A3040F48F
:10098000829F900D112480ED890FF5CFF901EACFF8
:100990000895FC0181819FEF980F9C3068F592814A
:1009A0002FEF290F2F3140F52381283128F524819D
:1009B0002C3310F525812C33F8F48230F9F49E3174
:1009C000D8F49D3139F5208130E02053384FC901EA
:1009D00083709927892B81F4C90164E670E00E9435
:1009E0008E10892BB9F4C90160E971E00E948E1064
:1009F0009C0181E0232B79F080E008959F3151F430
:100A00008150990B67E070E00E94A210809590954C
:100A10008170089581E008950F931F93CF93DF9322
:100A20008B01EC0169817A816115710551F0CE016C
:100A3000F80109951816190624F00980DA81C02DED
:100A4000F1CFCE01DF91CF911F910F91089560E01A
:100A50000E941D018BE090E00197F1F708954F92FD
:100A60005F926F927F928F929F92AF92BF92CF923E
:100A7000DF92EF92FF920F931F93CF93DF93FC01CE
:100A80002281338122303105F4F05B016C012C01AD
:100A9000F4E04F0E511C7201F701C081D181209703
:100AA000D1F3B501CE010E940C054C01FC0101817E
:100AB000128101151105C1F4E414F50461F7F60182
:100AC000978386831486DF91CF911F910F91FF90BA
:100AD000EF90DF90CF90BF90AF909F908F907F90DE
:100AE0006F905F904F900895B501C8010E940C056A
:100AF000FC0161807280F40112821182FC01128279
:100B00001182B801CE01F5010995F70118161906F1
:100B10006CF0D183C0837E01FFEFEF1AFF0A898159
:100B20009A81009781F41A8309831CC01183008382
:100B30007801FFEFEF1AFF0AF80181819281009797
:100B4000D1F08C01CE01EC01DCCFEC0189819A81DE
:100B50000097D9F77A8269827E01FFEFEF1AFF0AC8
:100B60009BCF8C01F801818192810097D1F772822D
:100B700061827801F2CFD283C183E8CFDC01149681
:100B8000ED91FC9115971C968C911C978823B1F0E0
:100B90001A962D913C911B97621773077CF018965B
:100BA000ED91FC911997261737075CF43097C1F047
:100BB0000180F281E02D2F5F3F4FF5CF30E020E044
:100BC000F2CF2617370771F481E01C968C931C979F
:100BD0001B963C932E931A971996FC93EE931897B5
:100BE000CF010895F0E0E0E0FBCF0E94BE05009742
:100BF00019F0FC018081089580E00895CF9377FD7E
:100C00000EC0FC01228133816217730744F4C42FA4
:100C10000E94BE05FC01C08381E0CF91089580E071
:100C2000FCCFFC01828193810895CF93DF93EC0187
:100C3000E881F9810190F081E02DCE010995181627
:100C4000190644F4E881F9810684F785E02DCE0188
:100C50000995EECFDF91CF910895CF92DF92EF9279
:100C6000FF920F931F93CF93DF93CAEAD2E084EAF7
:100C7000C82E82E0D82E0885F090AA02E090AB0240
:100C800018E0602F661F6627661F8E2D0E941D01CB
:100C9000000F61E08F2D0E941D0160E08F2D0E94EA
:100CA0001D01115071F72197CC16DD0621F761E087
:100CB0008091AC020E941D0160E08091AC02DF9146
:100CC000CF911F910F91FF90EF90DF90CF900C94F8
:100CD0001D01EF92FF921F93CF93DF937C01D0E031
:100CE000C0E010E0F70180810E94F4000C2E01C0EA
:100CF000880F0A94EAF7182B61E0F70181810E94BE
:100D00001D0160E0F70181810E941D012196C8301C
:100D1000D10541F7812FDF91CF911F91FF90EF9087
:100D20000895FF920F931F93CF93DF938C01D62FDB
:100D3000F42EC0E06D2F6170F80180810E941D01CA
:100D400061E0F80181810E941D01C73039F4FF2064
:100D500029F060E0F80180810E944B0160E0F80119
:100D600081810E941D01D695CF5FC83019F7DF91B0
:100D7000CF911F910F91FF9008951F93CF93DF9311
:100D8000EC01162F60E08A810E941D0161E08A81DA
:100D90000E944B0160E089810E941D0161E0898110
:100DA0000E944B0161E088810E944B0161E08A81D1
:100DB0000E941D018BE090E00197F1F7412F4170F7
:100DC000612FCE01DF91CF911F910C9491061F935B
:100DD000CF93DF93EC016EEB8091B3029091B4025C
:100DE0000E94BD062D811AE0822F612F0E9474108F
:100DF000682F660F680F660F620F40E08091B302A4
:100E00009091B4020E9491062C81822F612F0E9442
:100E10007410682F660F680F660F620F40E08091B4
:100E2000B3029091B4020E9491062B81822F612F10
:100E30000E947410682F660F680F660F620F40E003
:100E40008091B3029091B4020E9491062A81822F70
:100E5000612F0E947410682F660F680F660F620F73
:100E600040E08091B3029091B4020E9491062981E2
:100E7000822F612F0E947410682F660F680F660F13
:100E8000620F40E08091B3029091B4020E949106FB
:100E900088814A81698190E00E948504069667E016
:100EA00070E00E948E10682F811101C067E040E061
:100EB0008091B3029091B4020E9491062881822F02
:100EC0006AE00E947410682F660F680F660F620F49
:100ED00040E08091B3029091B4020E94910640E0FC
:100EE00060E08091B3029091B4020E949106E0917B
:100EF000B302F091B4028281DF91CF911F910C94E3
:100F00002705CF92DF92EF92FF920F931F93CF931B
:100F1000DF9300D000D000D0CDB7DEB76FEB80916B
:100F2000B3029091B4020E94BD068091B3029091E9
:100F3000B4020E9469068F77282F30E0F4E03595DF
:100F40002795FA95E1F7922F990F990F022F091B18
:100F5000000F080F8091B3029091B4020E946906BD
:100F6000282F30E0A4E035952795AA95E1F7922F38
:100F7000990F990FF22EF91AFF0CF80E8091B30217
:100F80009091B4020E94690686FF77C0982F9F71E6
:100F9000292F30E0E4E035952795EA95E1F7322FE7
:100FA000330F330F122F131B110F190F85FD145F11
:100FB0008091B3029091B4020E946906282F30E01C
:100FC00094E0359527959A95E1F7922F990F990F0F
:100FD000E22EE91AEE0CE80E8091B3029091B40271
:100FE0000E946906282F30E044E0359527954A9500
:100FF000E1F7922F990F990FD22ED91ADD0CD80E46
:101000008091B3029091B4020E9469068091B3026C
:101010009091B4020E946906482F50E064E0559513
:1010200047956A95E1F7942F990F990FC42EC91A25
:10103000CC0CC80E8091B3029091B4020E94690654
:10104000E091B302F091B40282810E9427059601DB
:101050004E2D512F6F2D702F80E090E026960FB609
:10106000F894DEBF0FBECDBFDF91CF911F910F91DE
:10107000FF90EF90DF90CF900895282F30E074E03C
:10108000359527957A95E1F7922F990F990F122FA1
:10109000191B110F180F8CCFCF93682F61608091AF
:1010A000B3029091B4020E94BD068091B302909168
:1010B000B4020E946906C82FE091B302F091B40215
:1010C00082810E9427058C2FCF910895FC01019009
:1010D0000020E9F73197AF01481B590BBC0183E9A8
:1010E00091E00C94ED02CF93DF930E946608EC012F
:1010F00082E391E00E9466088C0F9D1FDF91CF91E3
:101100000895EF92FF921F93CF93DF93DC01129625
:101110002D913C9113971216130634F521303105A9
:10112000C1F0EC018C819D81FC01E180F280108195
:101130000E943913FD82EC828A819B8101979B83F7
:101140008A831C86812FDF91CF911F91FF90EF90B2
:101150000895ED91FC910484F585E02DDF91CF9108
:101160001F91FF90EF90099410E0ECCFEF92FF9267
:101170001F93CF93DF93FC016281738110E01616F9
:101180001706DCF4EC01148661307105E9F0625059
:1011900071090E94BE057C01FC0181819281FC01E4
:1011A00010810E943913F70112821182FF82EE82B0
:1011B0008A819B8101979B838A83812FDF91CF91C5
:1011C0001F91FF90EF90089584819581FC0110811B
:1011D0000E9439131D821C821F821E821B821A826A
:1011E000ECCF1F93CF93DF9377FD3EC0DC011296C7
:1011F0002D913C91139762177307B4F56115710532
:1012000049F4ED91FC910684F785E02DDF91CF91B3
:101210001F910994215031092617370731F4ED91B8
:10122000FC910484F585E02DF1CFEC01615071094A
:101230000E94BE05DC011196ED91FC911297108180
:101240002181328112963C932E931197CF010E94F7
:1012500039138A819B8101979B838A831C86812F06
:10126000DF91CF911F91089510E0F9CFFF920F9376
:101270001F93CF93DF93DC0112960D911C9113976E
:101280000115110559F4ED91FC910480F581E02DD3
:10129000DF91CF911F910F91FF900994F62EEC01F1
:1012A00083E090E00E949D122C813D81FC013283FD
:1012B0002183F0829D838C830F5F1F4F1B830A83E2
:1012C0001C8681E0DF91CF911F910F91FF900895CF
:1012D000DF92EF92FF920F931F93CF93DF93EB0177
:1012E000642FDC0112964D915C911397C417D507BA
:1012F0006CF0ED91FC910480F581E02DDF91CF91B0
:101300001F910F91FF90EF90DF900994209731F497
:10131000ED91FC910680F781E02DF0CFD62E8C0167
:1013200083E090E00E949D127C01FC0110821282F9
:101330001182BE0161507109C8010E94BE05D7012A
:10134000DC92FC012181328112963C932E931197FD
:10135000F282E182D80112968D919C9113970196A9
:1013600013969C938E9312971C961C9281E0DF91AA
:10137000CF911F910F91FF90EF90DF9008951F93F1
:10138000CF93DF93EC01162F83E090E00E949D1233
:10139000FC011282118210832C813D81232B89F064
:1013A000EE81FF81928381839F838E838A819B81DB
:1013B00001969B838A831C8681E0DF91CF911F91E8
:1013C00008959D838C83F0CF62E88930F9F010F5A1
:1013D00063EA8430D9F070F46BEE8130B9F06AE0E2
:1013E0008130A0F066E4823089F062EC833071F0E5
:1013F0006FEF0CC062E1863049F062E9863030F070
:101400006BEC873019F062E0883091F780E392E06E
:101410000C94BF0966E18534C9F378F467EF8D3227
:10142000A9F320F467E88A3289F3E2CF67E68F32C6
:1014300069F36EE1833451F3DBCF67E7823731F331
:1014400038F467E1863411F362E78F36F9F2D0CFD2
:1014500066E38437D9F26AE78637C1F2C9CFEF92E3
:10146000FF920F931F93CF93DF9300D000D000D053
:10147000CDB7DEB71E821D8285E4898382E78A8329
:101480008B839FE69C838D838E010F5F1F4F7E01B0
:1014900087E0E80EF11CF80181918F010E94E409B8
:1014A0000E151F05C1F726960FB6F894DEBF0FBEC6
:1014B000CDBFDF91CF911F910F91FF90EF900895D5
:1014C0001F920F920FB60F9211242F933F938F9379
:1014D0009F93AF93BF9380918F0190919001A091C2
:1014E0009101B091920130918A0123E0230F2D37B1
:1014F00058F50196A11DB11D20938A0180938F019B
:1015000090939001A0939101B093920180918B01EF
:1015100090918C01A0918D01B0918E010196A11D39
:10152000B11D80938B0190938C01A0938D01B0939A
:101530008E01BF91AF919F918F913F912F910F900D
:101540000FBE0F901F90189526E8230F0296A11D3D
:10155000B11DD2CF1F920F920FB60F9211242F936D
:101560003F934F935F936F937F938F939F93AF932B
:10157000BF93EF93FF9383E991E00E946B03FF9188
:10158000EF91BF91AF919F918F917F916F915F91FB
:101590004F913F912F910F900FBE0F901F90189574
:1015A0001F920F920FB60F9211242F938F939F9338
:1015B000EF93FF93E091A301F091A4018081E0916A
:1015C000A901F091AA0182FD1BC090818091AC011C
:1015D0008F5F8F732091AD01821741F0E091AC01D4
:1015E000F0E0ED56FE4F958F8093AC01FF91EF91A7
:1015F0009F918F912F910F900FBE0F901F90189574
:101600008081F4CFCF93E3E9F1E01382128288EE78
:1016100093E0A0E0B0E084839583A683B7838AE05B
:1016200091E09183808385EC90E09587848784ECBA
:1016300090E09787868780EC90E0918B808B81EC9F
:1016400090E0938B828B82EC90E0958B848B86EC80
:1016500090E0978B868B118E128E138E148EE5EB95
:10166000F2E0C6E0C08385E0818387E08283F09367
:10167000B402E093B302EAEAF2E083E0808382E01E
:10168000818384E0828361E083E00E944B0161E01A
:1016900082E00E944B0161E084E00E944B0160E027
:1016A00083E00E941D0160E082E00E941D0160E075
:1016B00084E00E941D01EDEAF2E0DF011D92CA956F
:1016C000E9F70E942D06A7E9B2E08AE015968C930F
:1016D00015978BE016968C931697E4ECF0E0E49166
:1016E0001796EC931797E0EBF0E0E4911896EC93E3
:1016F000189740E85EE360E070E01D964D935D93BF
:101700006D937C935097E5E8F2E08EE0808349E1A9
:1017100050E060E070E0418352836383748381E032
:1017200085838683E3E7F2E09FE0908341835283E1
:101730006383748385838683E1E6F2E090E190839E
:10174000418352836383748385838683EFE4F2E06D
:1017500091E190834183528363837483858386837D
:10176000EDE3F2E093E190834183528363837483DA
:1017700085838683E0E3F2E08CE191E091838083CE
:1017800015821482178216821382128211861086A5
:10179000138612861486CF910895CF93DF93CDB729
:1017A000DEB72C970FB6F894DEBF0FBECDBF78948E
:1017B00084B5826084BD84B5816084BD85B5826056
:1017C00085BD85B5816085BD80916E008160809307
:1017D0006E00109281008091810082608093810070
:1017E0008091810081608093810080918000816080
:1017F000809380008091B10084608093B1008091DB
:10180000B00081608093B00080917A008460809302
:101810007A0080917A00826080937A0080917A00C9
:10182000816080937A0080917A00806880937A004A
:101830001092C1008FEF8093AD028093AE0280932F
:10184000AF028093B0028093B1028093B2020E94F3
:101850002D0662E080919C020E944B012FB7F89404
:1018600080918F0190919001A0919101B09192018E
:101870002FBF805D9740A109B1098093A00290938A
:10188000A102A093A202B093A30287E38093A902CE
:101890000091B3021091B40260E0F80181810E94CE
:1018A0004B0160E0F80180810E944B0160E0F8018B
:1018B00082810E944B0185E892E00E94500483E7F8
:1018C00092E00E94500481E692E00E9450048FE46E
:1018D00092E00E9450048DE392E00E94500461E087
:1018E00089E00E944B0161E088E00E944B01E09199
:1018F000A301F091A40182E08083E0919F01F09127
:10190000A0011082E091A101F091A2018FEC8083EF
:101910001092AB01E091A701F091A80186E08083CD
:10192000E091A501F091A601808180618083E09122
:10193000A501F091A601808188608083E091A501D6
:10194000F091A601808180688083E091A501F091EB
:10195000A60180818F7D808385E391E00E947308DA
:1019600083E491E00E9466088FE491E00E9473088E
:101970008CE491E00E94B1048F838BE0888787E438
:1019800091E00E94B10489878FE491E00E94B10444
:101990008A8782E591E00E94B1048B8785E591E01A
:1019A0000E94B1048C870E94810729833A834B836C
:1019B0005C836D837E83CE0101960E94C9048E01F3
:1019C000095F1F4F811109C088E591E00E947308EB
:1019D0000E942F0AC8010E94E7068EE80E944C0868
:1019E00087FF1BC08EE80E944C08F82E6EE880919D
:1019F000B3029091B4020E94BD066F2D6F7740E054
:101A00008091B3029091B4020E949106E091B302DA
:101A1000F091B40282810E94270580E80E944C0860
:101A200087FF1BC080E80E944C08F82E60E8809178
:101A3000B3029091B4020E94BD066F2D6F7740E013
:101A40008091B3029091B4020E949106E091B3029A
:101A5000F091B40282810E9427050E9481072983A8
:101A60003A834B835C836D837E83632F822F90E068
:101A70000E9485049C01A8E1B0E00E94B6102C8170
:101A80004B015C01820E911CA11CB11CA5019401AB
:101A9000ACE3B0E00E94C5102D815B016C01A20E89
:101AA000B11CC11CD11CA60195010E94C5102E813C
:101AB0006B017C01C20ED11CE11CF11C8F81498598
:101AC000688590E00E9485049C01A8E1B0E00E9436
:101AD000B6102A854B015C01820E911CA11CB11C21
:101AE000A5019401ACE3B0E00E94C5102B854B0129
:101AF0005C01820E911CA11CB11CA50194010E94E5
:101B0000C5102C85620F711D811D911DC616D7064B
:101B1000E806F90620F485E691E00E947308C80102
:101B20000E94E7066E0186E0C80ED11CAA24A39489
:101B3000B12CAC0EBD1E96E0A90EB11C222423943C
:101B4000312C0E9481072F83388749875A876B87FA
:101B50007C87F12C6AEF70E080E090E00E94AC019D
:101B600085E892E00E94FF0383E792E00E94FF0372
:101B700081E692E00E94FF038FE492E00E94FF035F
:101B80008DE392E00E94FF0385E892E00E94FA0351
:101B90008823A1F110928901109288018091880117
:101BA00090918901892B09F05DC091E09F1508F49F
:101BB00059C060E089E00E941D0160E088E00E9459
:101BC0001D01F394E4E0FE12C5CF8091880190914D
:101BD00089018230910509F429C108F049C00097B4
:101BE00009F4A6C0019709F4F7C082E791E00E94CA
:101BF00073081092890110928801C2C083E792E0B5
:101C00000E94FA03882329F03092890120928801EA
:101C1000C5CF81E692E00E94FA03882339F0E2E022
:101C2000F0E0F0938901E0938801B8CF8FE492E06F
:101C30000E94FA03882341F033E0832E912C909286
:101C4000890180928801AACF8DE392E00E94FA0375
:101C5000882309F4A3CF84E090E0909389018093D6
:101C600088019CCF61E089E00E941D0161E0A6CF60
:101C70008330910509F4A4C1049709F0B6CF85E437
:101C800080937C0080917A00806480937A008091B8
:101C90007A0086FDFCCF8091780020917900322F68
:101CA000282F4AE0429FC001439F900D11246FEFFF
:101CB00073E00E94A210072E000C880B990B0E9463
:101CC0007B112B013C014E01F2E08F0E911CCE01E5
:101CD00001967C01C301B2010E944A11F401619393
:101CE0004F0170E090E080E00E947B119B01AC010D
:101CF000C301B2010E94D61020E030E040E251E47E
:101D00000E9407122B013C01C814D90419F780E87E
:101D1000898386E58E8380E392E00E941506F701B1
:101D200081917F010E94E409AE14BF04C1F728C06D
:101D3000C8010E94C904811103C00E942F0A20C05B
:101D40008A852AE0622F0E94741089839A838B858A
:101D50000E9474108B839C838C850E9474108D83E9
:101D60009E8380E392E00E941506CE0101967C01DD
:101D7000F70181917F010E94E4090E151F05C1F74B
:101D8000CE0101964C01F12CE12CB70180E392E0E9
:101D90000E94F108F40181934F01FFEFEF1AFF0A4F
:101DA00086E0E816F10489F786E0FE013196ADEA97
:101DB000B2E001900D928A95E1F70E942D0680E035
:101DC00090E0892B09F4BDCE0E945703882309F4C3
:101DD000B8CE0E940000B5CEC8010E94C904882375
:101DE00009F4ABCF89852AE0622F0E9474108983A1
:101DF0009A8388850E9474108B839C838F8190E0E6
:101E00006AE070E00E948E106D838E8380E392E022
:101E10000E941506CE0101967C01F70181917F0198
:101E20000E94E4090E151F05C1F7AACF0E94DE012A
:101E3000882309F482CF80919D028C3009F489C0F7
:101E400048F48B3001F1412C512C90EC692E9FE726
:101E5000792E43C085518230B0F7F09099026F2DF2
:101E600070E0762F662766277F7780919A02682B2D
:101E700090E080E00E9479112DEC3CEC4CEC5DE3AD
:101E80000E94071282C06091990270E090E080E0A9
:101E90000E9479112B013C01F0909A02F7FE0AC0D2
:101EA000AC019B0160E070E080E89FEB0E94D610DF
:101EB0002B013C016F2D6F7070E090E080E00E947C
:101EC0007B112DEC3CEC4CEC5DE30E940712A3016E
:101ED00092010E94D7102B013C01A3019201C30182
:101EE000B2010E947412811128CFC301B2010E9475
:101EF0004311262F80E8898327FF50C08DE2273FBA
:101F00000CF080E88A838DE2273F2CF4822F6AE070
:101F10000E94801081958B83273F0CF04FC0822F49
:101F20006AE00E94801091959C838AE28D8383E40D
:101F30008E8380E392E00E941506CE0101967C011B
:101F4000F70181917F010E94E4090E151F05C1F779
:101F500017CFF09099026F2D70E090E080E00E9422
:101F600079112B013C0160919A026F7070E090E052
:101F700080E00E947B112DEC3CEC4CEC5DE30E9478
:101F80000712A30192010E94D7102B013C01F7FE1A
:101F9000A4CF77FA709477F870949FCF8A8380E803
:101FA0002A3024F0822F6AE00E9474108B832A303A
:101FB0002CF0822F6AE00E948010B6CF90E0B4CF60
:101FC0000E94DE018823B9F180919D028B3030F0B0
:101FD0008D3058F08551823008F43FC0412C512C8F
:101FE00080EC682E8FE7782E1EC06091980270E01A
:101FF00090E080E00E947B112DEC3CEC4CEC5DE32A
:102000000E9407122B013C016091970270E090E062
:1020100080E00E947B119B01AC01C301B2010E94D0
:10202000D7102B013C01A3019201C301B2010E9410
:102030007412882321F10E942F0A80E392E00E940B
:102040001506CE0101967C01F70181917F010E9466
:10205000E4090E151F05C1F793CE609197027091A8
:10206000980276276727762790E080E00E94791112
:102070002DEC3CEC4CEC5DE30E940712D2CFC30187
:10208000B2010E944A11262F80E82A3020F0822FC8
:102090006AE00E947410898390E02A3020F0822F39
:1020A0006AE00E9474109A8380E88B838AE28C83B2
:1020B0008FE28D838FE68E83C0CF8CE191E0909389
:1020C0003102809330028091340290913502009762
:1020D00051F0FC012181328130933502209334028A
:1020E0000E943913F0CF0895991B79E004C0991F1D
:1020F000961708F0961B881F7A95C9F78095089562
:1021000087FB082E062687FD819567FD61950E9455
:1021100074100EF4919507FC81950895AA1BBB1BC2
:1021200051E107C0AA1FBB1FA617B70710F0A61BD7
:10213000B70B881F991F5A95A9F780959095BC01F8
:10214000CD01089597FB072E16F4009407D077FD74
:1021500009D00E948E1007FC05D03EF49095819521
:102160009F4F0895709561957F4F0895A29FB0018C
:10217000B39FC001A39F700D811D1124911DB29FBB
:10218000700D811D1124911D08950E94B610A59F08
:10219000900DB49F900DA49F800D911D1124089562
:1021A000EE0FFF1F0590F491E02D09945058BB27C6
:1021B000AA270E94EE100C94CD110E94BF1138F096
:1021C0000E94C61120F039F49F3F19F426F40C94B4
:1021D000BC110EF4E095E7FB0C94B611E92F0E94B8
:1021E000DE1158F3BA17620773078407950720F0CA
:1021F00079F4A6F50C9400120EF4E0950B2EBA2F8C
:10220000A02D0B01B90190010C01CA01A0011124FC
:10221000FF27591B99F0593F50F4503E68F11A16A8
:10222000F040A22F232F342F4427585FF3CF469539
:1022300037952795A795F0405395C9F77EF41F165B
:10224000BA0B620B730B840BBAF09150A1F0FF0F25
:10225000BB1F661F771F881FC2F70EC0BA0F621F11
:10226000731F841F48F4879577956795B795F79501
:102270009E3F08F0B0CF9395880F08F09927EE0F96
:102280009795879508950E944A116894B1110C940E
:10229000011208950E94E61188F09F5798F0B92F17
:1022A0009927B751B0F0E1F0660F771F881F991F8B
:1022B0001AF0BA95C9F714C0B13091F00E9400121B
:1022C000B1E008950C940012672F782F8827B85F2B
:1022D00039F0B93FCCF3869577956795B395D9F7E3
:1022E0003EF490958095709561957F4F8F4F9F4FED
:1022F0000895E89409C097FB3EF4909580957095F9
:1023000061957F4F8F4F9F4F9923A9F0F92F96E941
:10231000BB279395F695879577956795B795F111B6
:10232000F8CFFAF4BB0F11F460FF1BC06F5F7F4F53
:102330008F4F9F4F16C0882311F096E911C0772365
:1023400021F09EE8872F762F05C0662371F096E86E
:10235000862F70E060E02AF09A95660F771F881F3D
:10236000DAF7880F9695879597F9089597F99F67FB
:1023700080E870E060E008959FEF80EC089500240D
:102380000A941616170618060906089500240A94DA
:1023900012161306140605060895092E0394000C60
:1023A00011F4882352F0BB0F40F4BF2B11F460FFEF
:1023B00004C06F5F7F4F8F4F9F4F089557FD905818
:1023C000440F551F59F05F3F71F04795880F97FBF9
:1023D000991F61F09F3F79F08795089512161306B3
:1023E0001406551FF2CF4695F1DF08C016161706E2
:1023F0001806991FF1CF8695710561050894089517
:10240000E894BB2766277727CB0197F908950E94A8
:102410001A120C94CD110E94BF1138F00E94C611FF
:1024200020F0952311F00C94B6110C94BC111124DA
:102430000C9401120E94DE1170F3959FC1F3950F69
:1024400050E0551F629FF001729FBB27F00DB11D38
:10245000639FAA27F00DB11DAA1F649F6627B00DC8
:10246000A11D661F829F2227B00DA11D621F739FB1
:10247000B00DA11D621F839FA00D611D221F749FBF
:102480003327A00D611D231F849F600D211D822F06
:10249000762F6A2F11249F5750409AF0F1F088232D
:1024A0004AF0EE0FFF1FBB1F661F771F881F91505A
:1024B0005040A9F79E3F510580F00C94B6110C9442
:1024C00001125F3FE4F3983ED4F3869577956795C4
:1024D000B795F795E7959F5FC1F7FE2B880F911D84
:1024E0009695879597F908950E947912880B990B14
:1024F0000895990F0008550FAA0BE0E8FEEF161695
:102500001706E807F907C0F012161306E407F507E7
:1025100098F0621B730B840B950B39F40A2661F05B
:10252000232B242B252B21F408950A2609F4A140FE
:10253000A6958FEF811D811D08950F931F93CF9353
:10254000DF938230910510F482E090E0E091BA02CE
:10255000F091BB0230E020E0B0E0A0E0309799F4C9
:102560002115310509F44AC0281B390B24303105E7
:10257000D8F58A819B816115710589F1FB019383EF
:102580008283FE0111C0408151810281138148176D
:102590005907E0F04817590799F4109761F012961F
:1025A0000C93129713961C933296CF01DF91CF9123
:1025B0001F910F9108950093BA021093BB02F4CFBC
:1025C0002115310551F04217530738F0A901DB01FD
:1025D0009A01BD01DF01F801C1CFEF01F9CF90935E
:1025E000BB028093BA02CDCFFE01E20FF31F8193AD
:1025F00091932250310939832883D7CF2091B80293
:102600003091B902232B41F4209102013091030152
:102610003093B9022093B80220910001309101015A
:102620002115310541F42DB73EB740910401509179
:102630000501241B350BE091B802F091B902E217B5
:10264000F307A0F42E1B3F0B2817390778F0AC01D5
:102650004E5F5F4F2417350748F04E0F5F1F5093B2
:10266000B9024093B802819391939FCFF0E0E0E0EC
:102670009CCFCF93DF930097E9F0FC013297138250
:102680001282A091BA02B091BB02ED0130E020E0CD
:102690001097A1F420813181820F931F2091B802FD
:1026A0003091B9022817390709F061C0F093B902D7
:1026B000E093B802DF91CF910895EA01CE17DF07CA
:1026C000E8F54A815B819E0141155105B1F7E901A9
:1026D000FB83EA8349915991C40FD51FEC17FD077D
:1026E00061F4808191810296840F951FE90199839D
:1026F0008883828193819B838A83F0E0E0E0129655
:102700008D919C9113970097B9F52D913C9111975C
:10271000CD010296820F931F2091B8023091B90229
:102720002817390739F6309751F51092BB021092ED
:10273000BA02B093B902A093B802BCCFD383C283CC
:1027400040815181840F951FC817D90761F44E5FEE
:102750005F4F88819981480F591F518340838A8137
:102760009B81938382832115310509F0B0CFF093CB
:10277000BB02E093BA029ECFFD01DC01C0CF138201
:102780001282D7CF10E0C8E6D0E004C0FE010E945C
:0E279000D0102196C936D107C9F7F894FFCFB3
:10279E000000BC028000000000008D03ED021A0351
:1027AE00DA034B0329033D030000000011066809FC
:1027BE00BF093609FE05F108B6088108F5051506AC
:1027CE002F050D0A00436C6F636B20537461727496
:1027DE006564004E6F762033302032303231003156
:1027EE00373A31373A32380054696D6520496E7682
:1027FE00616C69640054696D65205570646174651F
:10280E00640053657474696E67206D6F646520741F
:08281E006F2054494D450000F4
:00000001FF
