:100000000C9468000C9490000C9490000C94900058
:100010000C9490000C9490000C9490000C94900020
:100020000C9490000C9490000C9490000C94900010
:100030000C9490000C9490000C9490000C94900000
:100040000C9439080C9490000C94A9080C94830823
:100050000C9490000C9490000C9490000C949000E0
:100060000C9490000C9490001F1C1F1E1F1E1F1F3D
:100070001E1F1E1F00000000240027002A00000091
:100080000000250028002B000000000800020100ED
:100090000003040700000000000000000000000052
:1000A00023002600290004040404040404040202BA
:1000B00002020202030303030303010204081020E7
:1000C0004080010204081020010204081020DB080F
:1000D00011241FBECFEFD8E0DEBFCDBF11E0A0E0FE
:1000E000B1E0E4EAF1E202C005900D92A837B10751
:1000F000D9F722E0A8E7B1E001C01D92A13AB2070A
:10010000E1F710E0C8E6D0E004C02197FE010E94AC
:10011000030FC736D107C9F70E9495090C94D01078
:100120000C940000CF92DF92EF92FF92CF93DF9377
:10013000B0918702A0E08111AB2F8091880290E0FE
:10014000880F991FAC0144565F4FC0908D02D0902C
:100150008E02E0908F02F090900230E020E0FA01F1
:10016000C591D491E881B90190E080E0EB23EA13D6
:100170000AC02F5F3F4F6C157D058E059F0578F3F4
:100180006FEF7FEFCB01DF91CF91FF90EF90DF908A
:10019000CF900895833081F028F4813099F0823037
:1001A000A9F008958730A9F08830C9F08430B1F4FF
:1001B000809180008F7D03C0809180008F77809335
:1001C0008000089584B58F7784BD089584B58F7DB0
:1001D000FBCF8091B0008F778093B000089580911D
:1001E000B0008F7DF9CFCF93DF93282F30E0F90156
:1001F000E857FF4F8491F901E654FF4FD491F9017C
:10020000EA55FF4FC491CC23A1F081110E94CA008E
:10021000EC2FF0E0EE0FFF1FE456FF4FA591B491D5
:10022000EC91ED2381E090E009F480E0DF91CF9143
:10023000089580E090E0FACF1F93CF93DF93282FAB
:1002400030E0F901E857FF4F8491F901E654FF4F80
:10025000D491F901EA55FF4FC491CC23A9F0162F90
:1002600081110E94CA00EC2FF0E0EE0FFF1FE25850
:10027000FF4FA591B4918FB7F894EC91111108C07C
:10028000D095DE23DC938FBFDF91CF911F9108952E
:10029000DE2BF8CFCF93DF9390E0FC01E654FF4FC5
:1002A00024918A559F4FFC0184918823C9F090E0E6
:1002B000880F991FFC01EC58FF4FA591B491FC01E8
:1002C000E258FF4FC591D49161110DC09FB7F894CA
:1002D0008C91209582238C938881282328839FBF2B
:1002E000DF91CF910895623051F49FB7F8943C911B
:1002F000822F809583238C93E8812E2BEFCF8FB7AD
:10030000F894EC912E2B2C938FBFEACF3FB7F89443
:100310008091810190918201A0918301B09184012B
:1003200026B5A89B05C02F3F19F00196A11DB11D50
:100330003FBFBA2FA92F982F8827BC01CD01620F8C
:10034000711D811D911D42E0660F771F881F991F47
:100350004A95D1F708958F929F92AF92BF92CF9214
:10036000DF92EF92FF924B015C010E9486016B01CC
:100370007C010E9486016C197D098E099F09683EE7
:10038000734081059105A8F321E0821A9108A10824
:10039000B10888EEC80E83E0D81EE11CF11C811460
:1003A0009104A104B10429F7FF90EF90DF90CF9062
:1003B000BF90AF909F908F900895CF92DF92EF9271
:1003C000FF920F931F93CF93DF93CDB7DEB7C05447
:1003D000D1400FB6F894DEBF0FBECDBF2FB7F89453
:1003E0008091850190918601A0918701B09188014B
:1003F0002FBF4091890250918A0260918B027091C7
:100400008C028C019D01041B150B260B370BB901C7
:10041000A801403D57406105710590F4809191021B
:10042000C05CDE4F0FB6F894DEBF0FBECDBFDF91CC
:10043000CF911F910F91FF90EF90DF90CF90089593
:100440008093890290938A02A0938B02B0938C02CE
:100450001092840210928302109282021092810202
:100460001092800262E0809185020E944A0161E060
:1004700070E080E090E00E94AB0161E08091850235
:100480000E944A0160E0809185020E941C018091D7
:1004900086028551823020F58BE291E10197F1F7D8
:1004A00062E0809185020E944A018091920290E070
:1004B0008230910538F0880F991F880F991F059792
:1004C0000197F1F7F89480E00E9492006F3F7F4F10
:1004D0008F4F9F4F61F410929102789480E0A0CFEB
:1004E00064E170E080E090E00E94AB01D9CF81E050
:1004F0000E9492006F3F7F4F8F4F9F4F61F38E019D
:100500000F5F1F4F6E018FEBC81A8EEFD80A78016C
:1005100080E00E949200F70160837183828393835D
:1005200081E00E949200F70164837583868397833C
:10053000F8E0EF0EF11CEC14FD0451F7789430E074
:1005400020E0F801C080D180E280F38044815581B1
:1005500066817781FFEFCF16DF06EF06FF0631F0E9
:100560004F3F8FEF58076807780719F410929102F0
:10057000B5CFF90183E0F595E7958A95E1F7E05865
:10058000FD4F8081880FC416D506E606F70610F1E8
:1005900080832F5F3F4F085F1F4F2832310589F658
:1005A000409184022091800280918102280F33279C
:1005B000331F80918202280F311D80918302820FA8
:1005C000932F911D99274817190681F681E0809392
:1005D000910226CF8160DCCFAF92BF92CF92DF92A3
:1005E000EF92FF920F931F93CF93DF936C017B01E8
:1005F0008B01040F151FEB015E01AE18BF08C01779
:10060000D10759F06991D601ED91FC910190F081EB
:10061000E02DC6010995892B79F7C501DF91CF91AE
:100620001F910F91FF90EF90DF90CF90BF90AF9010
:100630000895FC01538D448D252F30E0842F90E0E8
:10064000821B930B541710F0CF96089501970895CD
:10065000FC01918D828D981761F0A28DAE0FBF2F96
:10066000B11D5D968C91928D9F5F9F73928F90E0EC
:1006700008958FEF9FEF0895FC01918D828D98175B
:1006800031F0828DE80FF11D858D90E008958FEF98
:100690009FEF0895FC01918D228D892F90E0805C61
:1006A0009F4F821B91098F739927089589E891E0E4
:1006B0000E944A0321E0892B09F420E0822F08954B
:1006C00080E090E0892B29F00E94560381110C9460
:1006D00000000895FC01A48DA80FB92FB11DA35AE5
:1006E000BF4F2C91848D90E001968F739927848F52
:1006F000A689B7892C93A089B1898C918370806475
:100700008C93938D848D981306C00288F389E02D15
:1007100080818F7D80830895EF92FF920F931F93C6
:10072000CF93DF93EC0181E0888F9B8D8C8D9813A4
:100730001AC0E889F989808185FF15C09FB7F894B0
:10074000EE89FF896083E889F989808183708064FC
:1007500080839FBF81E090E0DF91CF911F910F9147
:10076000FF90EF900895F62E0B8D10E00F5F1F4F56
:100770000F731127E02E8C8D8E110CC00FB607FC65
:10078000FACFE889F989808185FFF5CFCE010E94F3
:100790006A03F1CFEB8DEC0FFD2FF11DE35AFF4FF4
:1007A000F0829FB7F8940B8FEA89FB898081806281
:1007B000CFCFCF93DF93EC01888D8823B9F0AA893E
:1007C000BB89E889F9898C9185FD03C0808186FD0C
:1007D0000DC00FB607FCF7CF8C9185FFF2CF80815B
:1007E00085FFEDCFCE010E946A03E9CFDF91CF9163
:1007F0000895FC018781811181850895CF92DF9250
:10080000EF92FF920F931F93CF93DF93EC018FB77B
:10081000F894C0908501D0908601E0908701F09017
:1008200088018FBF88810E94F3009C018E8191E036
:10083000811104C0232B21F490E002C0232BE1F7A7
:100840004E855F856889798997018601041B150BA0
:10085000260B370B49815A816B817C810417150760
:100860002607370778F41986CA86DB86EC86FD866C
:100870008F81DF91CF911F910F91FF90EF90DF90CB
:10088000CF9008958F8188879F83292F28272987D4
:10089000981751F3CE86DF86E88AF98AE5CFDC0126
:1008A00050E0E8E6F0E081E0861730F49491490FDB
:1008B000511D8F5F3196F8CF633038F0CD018370D2
:1008C0009927892B11F44F5F5F4F9D012D5F3F4F9B
:1008D00036952795369527956DE671E0A69FC00160
:1008E000A79F900DB69F900D11240197820F931F23
:1008F000840F951F0895FC019F012F5F3F4F80815A
:100900008F7E803269F080E02AE0919130ED390FDE
:100910003A3040F4829F900D112480ED890FF5CF7D
:10092000F901EACF0895FC0181819FEF980F9C3077
:1009300068F592812FEF290F2F3140F5238128315F
:1009400028F524812C3310F525812C33F8F48230DE
:10095000F9F49E31D8F49D3139F5208130E02053EF
:10096000384FC90183709927892B81F4C90164E646
:1009700070E00E949F0E892BB9F4C90160E971E013
:100980000E949F0E9C0181E0232B79F080E0089566
:100990009F3151F48150990B67E070E00E94B30ED3
:1009A000809590958170089581E0089560E00E949F
:1009B0001C018BE090E00197F1F70895893009F46C
:1009C0009BC038F5843009F47BC090F4813009F481
:1009D00062C008F458C0823009F464C0833009F45E
:1009E00068C0E0910001F0E0E858FE4F8FEF51C081
:1009F000863009F473C008F46AC0873009F475C002
:100A0000883079F7E0910001F0E0E858FE4F82E08D
:100A100040C0853409F485C0C8F48D3209F473C030
:100A200048F48A32F1F6E0910001F0E0E858FE4F18
:100A300087E82FC08F3209F46DC0833491F6E091BE
:100A40000001F0E0E858FE4F8EE123C0823709F440
:100A500076C060F4863409F46BC08F3611F6E091ED
:100A60000001F0E0E858FE4F82E713C0843709F434
:100A70006DC0863709F0B5CFE0910001F0E0E8588D
:100A8000FE4F8AE706C0E0910001F0E0E858FE4F13
:100A90008AE080830895E0910001F0E0E858FE4F7D
:100AA0008BEEF7CFE0910001F0E0E858FE4F86E4CE
:100AB000F0CFE0910001F0E0E858FE4F82ECE9CF82
:100AC000E0910001F0E0E858FE4F83EAE2CFE091C8
:100AD0000001F0E0E858FE4F82E9DBCFE091000131
:100AE000F0E0E858FE4F82E1D4CFE0910001F0E061
:100AF000E858FE4F8BECCDCFE0910001F0E0E858D4
:100B0000FE4F82E8C6CFE0910001F0E0E858FE4FCA
:100B100087EFBFCFE0910001F0E0E858FE4F87E695
:100B2000B8CFE0910001F0E0E858FE4F86E1B1CF88
:100B3000E0910001F0E0E858FE4F87E1AACFE09194
:100B40000001F0E0E858FE4F87E7A3CFE0910001F5
:100B5000F0E0E858FE4F86E39CCFEF92FF920F93B0
:100B60001F93CF93DF9300D000D000D0CDB7DEB776
:100B700086E0E3E0F1E0DE01119601900D928A95A6
:100B8000E1F785E0809300018E010F5F1F4F7E012A
:100B900087E0E80EF11CF80181918F010E94DE04CC
:100BA000809100018150809300010E151F0599F777
:100BB00026960FB6F894DEBF0FBECDBFDF91CF9162
:100BC0001F910F91FF90EF900895CF92DF92EF92D7
:100BD000FF920F931F93CF93DF93C3E9D2E08DE889
:100BE000C82E82E0D82E0885F0909302E0909402FF
:100BF00018E0602F661F6627661F8E2D0E941C015D
:100C0000000F61E08F2D0E941C0160E08F2D0E947B
:100C10001C01115071F72197CC16DD0621F761E018
:100C2000809195020E941C0160E080919502DF9105
:100C3000CF911F910F91FF90EF90DF90CF900C9488
:100C40001C01EF92FF921F93CF93DF937C01D0E0C2
:100C5000C0E010E0F70180810E94F3000C2E01C07B
:100C6000880F0A94EAF7182B61E0F70181810E944E
:100C70001C0160E0F70181810E941C012196C830AF
:100C8000D10541F7812FDF91CF911F91FF90EF9018
:100C90000895FF920F931F93CF93DF938C01D62F6C
:100CA000F42EC0E06D2F6170F80180810E941C015C
:100CB00061E0F80181810E941C01C73039F4FF20F6
:100CC00029F060E0F80180810E944A0160E0F801AB
:100CD00081810E941C01D695CF5FC83019F7DF9142
:100CE000CF911F910F91FF9008951F93CF93DF93A2
:100CF000EC01162F60E08A810E941C0161E08A816C
:100D00000E944A0160E089810E941C0161E08981A2
:100D10000E944A0161E088810E944A0161E08A8163
:100D20000E941C018BE090E00197F1F7412F417088
:100D3000612FCE01DF91CF911F910C9449061F9333
:100D4000CF93DF93EC016EEB80919C0290919D021A
:100D50000E9475062D811AE0822F612F0E94850E58
:100D6000682F660F680F660F620F40E080919C024B
:100D700090919D020E9449062C81822F612F0E9432
:100D8000850E682F660F680F660F620F40E0809136
:100D90009C0290919D020E9449062B81822F612F17
:100DA0000E94850E682F660F680F660F620F40E085
:100DB00080919C0290919D020E9449062A81822F77
:100DC000612F0E94850E682F660F680F660F620FF5
:100DD00040E080919C0290919D020E9449062981E9
:100DE000822F612F0E94850E682F660F680F660F95
:100DF000620F40E080919C0290919D020E94490602
:100E000088814A81698190E00E944F04069667E0DC
:100E100070E00E949F0E682F811101C067E040E0E2
:100E200080919C0290919D020E9449062881822F08
:100E30006AE00E94850E682F660F680F660F620FCA
:100E400040E080919C0290919D020E94490640E002
:100E500060E080919C0290919D020E944906E09181
:100E60009C02F0919D028281DF91CF911F910C94A1
:100E7000D604CF92DF92EF92FF920F931F93CF93FE
:100E8000DF9300D000D000D0CDB7DEB76FEB8091FC
:100E90009C0290919D020E94750680919C02909107
:100EA0009D020E9421068F77282F30E0F4E03595CF
:100EB0002795FA95E1F7922F990F990F022F091BA9
:100EC000000F080F80919C0290919D020E942106C4
:100ED000282F30E0A4E035952795AA95E1F7922FC9
:100EE000990F990FF22EF91AFF0CF80E80919C02BF
:100EF00090919D020E94210686FF77C0982F9F71D6
:100F0000292F30E0E4E035952795EA95E1F7322F77
:100F1000330F330F122F131B110F190F85FD145FA1
:100F200080919C0290919D020E942106282F30E022
:100F300094E0359527959A95E1F7922F990F990F9F
:100F4000E22EE91AEE0CE80E80919C0290919D022F
:100F50000E942106282F30E044E0359527954A95D8
:100F6000E1F7922F990F990FD22ED91ADD0CD80ED6
:100F700080919C0290919D020E94210680919C028A
:100F800090919D020E942106482F50E064E0559503
:100F900047956A95E1F7942F990F990FC42EC91AB6
:100FA000CC0CC80E80919C0290919D020E9421065B
:100FB000E0919C02F0919D0282810E94D6049601EC
:100FC0004E2D512F6F2D702F80E090E026960FB69A
:100FD000F894DEBF0FBECDBFDF91CF911F910F916F
:100FE000FF90EF90DF90CF900895282F30E074E0CD
:100FF000359527957A95E1F7922F990F990F122F32
:10100000191B110F180F8CCFCF93682F616080913F
:101010009C0290919D020E94750680919C02909185
:101020009D020E942106C82FE0919C02F0919D0232
:1010300082810E94D6048C2FCF910895FC010190EB
:101040000020E9F73197AF01481B590BBC0189E833
:1010500091E00C94EC02CF93DF930E941E08EC0108
:101060008BE191E00E941E088C0F9D1FDF91CF91B4
:1010700008951F920F920FB60F9211242F933F9352
:101080008F939F93AF93BF93809185019091860139
:10109000A0918701B09188013091800123E0230F56
:1010A0002D3758F50196A11DB11D20938001809325
:1010B000850190938601A0938701B0938801809168
:1010C000810190918201A0918301B09184010196E8
:1010D000A11DB11D8093810190938201A093830192
:1010E000B0938401BF91AF919F918F913F912F91C8
:1010F0000F900FBE0F901F90189526E8230F0296B1
:10110000A11DB11DD2CF1F920F920FB60F921124C5
:101110002F933F934F935F936F937F938F939F93FF
:10112000AF93BF93EF93FF9389E891E00E946A0326
:10113000FF91EF91BF91AF919F918F917F916F91AF
:101140005F914F913F912F910F900FBE0F901F9085
:1011500018951F920F920FB60F9211242F938F9311
:101160009F93EF93FF93E0919901F0919A01808111
:10117000E0919F01F091A00182FD1BC090818091C0
:10118000A2018F5F8F732091A301821741F0E0913C
:10119000A201F0E0E757FE4F958F8093A201FF91E7
:1011A000EF919F918F912F910F900FBE0F901F90F5
:1011B00018958081F4CFCF93E9E8F1E01382128291
:1011C00088EE93E0A0E0B0E084839583A683B783A4
:1011D0008DE091E09183808385EC90E09587848712
:1011E00084EC90E09787868780EC90E0918B808BF1
:1011F00081EC90E0938B828B82EC90E0958B848BDA
:1012000086EC90E0978B868B118E128E138E148E47
:10121000EEE9F2E0C6E0C08385E0818387E0828367
:10122000F0939D02E0939C02E3E9F2E083E0808387
:1012300082E0818384E0828361E083E00E944A014E
:1012400061E082E00E944A0161E084E00E944A017C
:1012500060E083E00E941C0160E082E00E941C01CB
:1012600060E084E00E941C01E6E9F2E0DF011D92EB
:10127000CA95E9F70E94E505A0E8B2E08AE0159674
:101280008C9315978BE016968C931697E4ECF0E010
:10129000E4911796EC931797E0EBF0E0E491189641
:1012A000EC93189740E85EE360E070E01D964D9384
:1012B0005D936D937C935097EEE6F2E08EE0808331
:1012C00049E150E060E070E04183528363837483BE
:1012D00081E085838683ECE5F2E09FE090834183A3
:1012E00052836383748385838683EAE4F2E090E12A
:1012F0009083418352836383748385838683E8E389
:10130000F2E091E190834183528363837483858308
:101310008683E6E2F2E093E1908341835283638324
:10132000748385838683CF910895CF93DF93CDB760
:10133000DEB7A7970FB6F894DEBF0FBECDBF789487
:1013400084B5826084BD84B5816084BD85B58260CA
:1013500085BD85B5816085BD80916E00816080937B
:101360006E001092810080918100826080938100E4
:1013700080918100816080938100809180008160F4
:10138000809380008091B10084608093B10080914F
:10139000B00081608093B00080917A008460809377
:1013A0007A0080917A00826080937A0080917A003E
:1013B000816080937A0080917A00806880937A00BF
:1013C0001092C1008FEF80939602809397028093D2
:1013D00098028093990280939A0280939B020E94C4
:1013E000E50562E0809185020E944A012FB7F894DA
:1013F0008091850190918601A0918701B09188012B
:101400002FBF805D9740A109B10980938902909315
:101410008A02A0938B02B0938C0287E3809392029E
:1014200000919C0210919D0260E0F80181810E9470
:101430004A0160E0F80180810E944A0160E0F80101
:1014400082810E944A0161E089E00E944A0161E0D4
:1014500088E00E944A01E0919901F0919A0182E0AE
:101460008083E0919501F09196011082E0919701BF
:10147000F09198018FEC80831092A101E0919D0181
:10148000F0919E0186E08083E0919B01F0919C01A8
:10149000808180618083E0919B01F0919C0180813B
:1014A00088608083E0919B01F0919C01808180683D
:1014B0008083E0919B01F0919C0180818F7D8083EE
:1014C0008EE191E00E942B088CE291E00E941E08C0
:1014D00088E391E00E942B0885E391E00E947B0461
:1014E0008AA38CE08BA380E391E00E947B048CA311
:1014F00088E391E00E947B048DA38BE391E00E943E
:101500007B048EA38EE391E00E947B048FA30E9454
:10151000390729833A834B835C836D837E83CE01B5
:1015200001960E94930481110AC081E491E00E9417
:101530002B080E94AD05CE0182960E949F068EE880
:101540000E94040887FF1BC08EE80E940408182F21
:101550006EE880919C0290919D020E947506612F19
:101560006F7740E080919C0290919D020E94490615
:10157000E0919C02F0919D0282810E94D60480E855
:101580000E94040887FF1BC080E80E940408182FEF
:1015900060E880919C0290919D020E947506612FE7
:1015A0006F7740E080919C0290919D020E944906D5
:1015B000E0919C02F0919D0282810E94D6040E94DB
:1015C000390729833A834B835C836D837E83632F42
:1015D000822F90E00E944F049C01A8E1B0E00E949D
:1015E000E90E2C814B015C01820E911CA11CB11CE7
:1015F000A5019401ACE3B0E00E94F80E2D817B01BF
:101600008C01E20EF11C011D111DA80197010E9421
:10161000F80E2E816B017C01C20ED11CE11CF11C65
:101620008AA14CA16BA190E00E944F049C01A8E10B
:10163000B0E00E94E90E2DA14B015C01820E911CCD
:10164000A11CB11CA5019401ACE3B0E00E94F80E0E
:101650002EA14B015C01820E911CA11CB11CA501A5
:1016600094010E94F80E2FA1620F711D811D911D22
:10167000C616D706E806F90620F48EE491E00E942B
:101680002B08CE0182960E949F064AE0842E912C60
:10169000A12CB12C8E01095F1F4F1E0185E0280E81
:1016A000311C0E9439072AA33BA34CA35DA36EA360
:1016B0007FA3F12C6AEF70E080E090E00E94AB0124
:1016C0008EE692E00E94FE038CE592E00E94FE030B
:1016D0008AE492E00E94FE0388E392E00E94FE0307
:1016E00086E292E00E94FE038EE692E00E94F903F9
:1016F000882309F46BC010927F0110927E018091C3
:101700007E0190917F01892B09F08CC091E09F159B
:1017100008F488C060E089E00E941C0160E088E075
:101720000E941C01F394E4E0FE12C4CF8BE591E02B
:101730000E941E08C0907E01D0907F010D2C000CED
:10174000EE08FF08F7FE74C06DE289E891E00E94A0
:101750008C0322273327A9012C193D094E095F0963
:1017600019A2CE0181967C01CA01B901A50194019B
:101770000E94C70E605DF70162937F01211531055C
:101780004105510589F7E114F10419F0C7010E94E0
:101790001E088BE191E00E941E0880917E019091CD
:1017A0007F018230910509F461C108F057C00097AC
:1017B00009F4C4C0019709F424C182E691E00E94B3
:1017C0002B0810927F0110927E01E5C08CE592E01B
:1017D0000E94F903E1E0F0E0811115C08AE492E093
:1017E0000E94F903882339F082E090E090937F0112
:1017F00080937E0184CF88E392E00E94F9038823DE
:1018000039F0E3E0F0E0F0937F01E0937E0177CFE1
:1018100086E292E00E94F903882309F470CF84E005
:1018200090E0E4CF61E089E00E941C0161E077CFA5
:10183000A701960119A2CE0181967C01CA01B901C6
:10184000A50194010E94C70E605DF70162937F01BC
:10185000211531054105510589F795CF8330910553
:1018600009F4D2C1049709F0A8CF85E480937C00E5
:1018700080917A00806480937A0080917A0086FD5E
:10188000FCCF8091780020917900322F282F4AE0F8
:10189000429FC001439F900D11246FEF73E00E949F
:1018A000B30E072E000C880B990B0E94AE0F2B0174
:1018B0003C016E01F2E0CF0ED11CCE0101967C01FD
:1018C000C301B2010E947D0FF60161936F0170E0C8
:1018D00090E080E00E94AE0F9B01AC01C301B20119
:1018E0000E94090F20E030E040E251E40E943A10EB
:1018F0002B013C012C143D0419F780E889838D836A
:1019000086E78E8384E08093010185E08093000167
:10191000CC24C394D12CCC0EDD1EF6E0CF0ED11C0E
:10192000F70181917F010E94DE04809100018150C6
:1019300080930001CE14DF0499F72DC0CE0182966A
:101940000E949304811103C00E94AD0524C08DA1A3
:101950002AE0622F0E94850E89839A838EA10E94BD
:10196000850E8B839C838FA10E94850E8D839E8321
:1019700085E080930001CE0101967C01F701819101
:101980007F010E94DE04809100018150809300015C
:101990000E151F0599F780910101863058F4E091EA
:1019A0000101F0E0E858FE4F80818250808386E09C
:1019B0008093010180910201863058F4E091020188
:1019C000F0E0E858FE4F80818250808386E080936B
:1019D000020186E0E8E7F1E0A6E9B2E001900D92AD
:1019E0008A95E1F70E94E50580E090E0892B09F4F3
:1019F00058CE0E945603882309F44FCE0E9400005F
:101A00004CCECE0182960E949304882309F49CCF89
:101A10008CA12AE0622F0E94850E89839A838BA174
:101A20000E94850E8B839C838AA190E06AE070E01F
:101A30000E949F0E6D838E8384E08093010182E07B
:101A40008093020185E080930001CE0101967C0124
:101A5000F70181917F010E94DE0480910001815095
:101A600080930001E016F10699F795CF0E94DD0101
:101A7000882309F469CF809186028C3009F48DC0E7
:101A800048F48B3001F1C12CD12C20ECE22E2FE751
:101A9000F22E43C085518230B0F770908202672DDC
:101AA00070E0762F662766277F7780918302682B08
:101AB00090E080E00E94AC0F2DEC3CEC4CEC5DE340
:101AC0000E943A1086C06091820270E090E080E04F
:101AD0000E94AC0F2B013C01F0908302F7FE0AC07C
:101AE000AC019B0160E070E080E89FEB0E94090F71
:101AF0002B013C016F2D6F7070E090E080E00E9440
:101B0000AE0F2DEC3CEC4CEC5DE30E943A10A301CF
:101B100092010E940A0F6B017C01A7019601C70187
:101B2000B6010E94A71081110FCFC701B6010E9414
:101B3000760F262F80E8898327FF54C08DE2273F48
:101B40000CF080E88A838DE2273F2CF4822F6AE034
:101B50000E94910E81958B83273F0CF053C0822FFA
:101B60006AE00E94910E91959C838AE28D8383E4C2
:101B70008E8385E080930001CE0101967C01F70100
:101B800081917F010E94DE04809100018150809349
:101B90000001E016F10699F7FECE70908202672DE3
:101BA00070E090E080E00E94AC0F6B017C016091DE
:101BB00083026F7070E090E080E00E94AE0F2DEC29
:101BC0003CEC4CEC5DE30E943A10A70196010E94A8
:101BD0000A0F6B017C0177FEA0CFF7FAF094F7F8BB
:101BE000F0949BCF8A8380E82A3024F0822F6AE029
:101BF0000E94850E8B832A302CF0822F6AE00E948F
:101C0000910EB2CF90E0B0CF0E94DD018823B9F1F0
:101C1000809186028B3030F08D3058F085518230C3
:101C200008F443C0C12CD12C90ECE92E9FE7F92E8B
:101C30001EC06091810270E090E080E00E94AE0FD3
:101C40002DEC3CEC4CEC5DE30E943A106B017C0106
:101C50006091800270E090E080E00E94AE0F9B01F6
:101C6000AC01C701B6010E940A0F6B017C01A701FC
:101C70009601C701B6010E94A710882341F10E9476
:101C8000AD0585E080930001CE0101967C01F7014E
:101C900081917F010E94DE04809100018150809338
:101CA00000010E151F0599F776CE609180027091A4
:101CB000810276276727762790E080E00E94AC0FAC
:101CC0002DEC3CEC4CEC5DE30E943A10CECFC7010A
:101CD000B6010E947D0F262F80E82A3020F0822F47
:101CE0006AE00E94850E898390E02A3020F0822FDE
:101CF0006AE00E94850E9A8380E88B838AE28C8357
:101D00008FE28D838FE68E83BCCF991B79E004C070
:101D1000991F961708F0961B881F7A95C9F780952A
:101D2000089587FB082E062687FD819567FD61953E
:101D30000E94850E0EF4919507FC81950895AA1BCB
:101D4000BB1B51E107C0AA1FBB1FA617B70710F0A6
:101D5000A61BB70B881F991F5A95A9F780959095D8
:101D6000BC01CD01089597FB072E16F4009407D00F
:101D700077FD09D00E949F0E07FC05D03EF4909598
:101D800081959F4F0895709561957F4F0895A1E2C9
:101D90001A2EAA1BBB1BFD010DC0AA1FBB1FEE1FE5
:101DA000FF1FA217B307E407F50720F0A21BB30B30
:101DB000E40BF50B661F771F881F991F1A9469F7AC
:101DC00060957095809590959B01AC01BD01CF0108
:101DD0000895A29FB001B39FC001A39F700D811D04
:101DE0001124911DB29F700D811D1124911D089524
:101DF0000E94E90EA59F900DB49F900DA49F800DA9
:101E0000911D11240895EE0FFF1F0590F491E02D10
:101E100009945058BB27AA270E94210F0C94001048
:101E20000E94F20F38F00E94F90F20F039F49F3F22
:101E300019F426F40C94EF0F0EF4E095E7FB0C94E4
:101E4000E90FE92F0E94111058F3BA1762077307C0
:101E50008407950720F079F4A6F50C9433100EF45E
:101E6000E0950B2EBA2FA02D0B01B90190010C01AA
:101E7000CA01A0011124FF27591B99F0593F50F4C2
:101E8000503E68F11A16F040A22F232F342F44271A
:101E9000585FF3CF469537952795A795F040539512
:101EA000C9F77EF41F16BA0B620B730B840BBAF0E2
:101EB0009150A1F0FF0FBB1F661F771F881FC2F74D
:101EC0000EC0BA0F621F731F841F48F48795779561
:101ED0006795B795F7959E3F08F0B0CF9395880F1B
:101EE00008F09927EE0F9795879508950E947D0F2A
:101EF0006894B1110C94341008950E94191088F060
:101F00009F5798F0B92F9927B751B0F0E1F0660FBD
:101F1000771F881F991F1AF0BA95C9F714C0B130FE
:101F200091F00E943310B1E008950C943310672FA4
:101F3000782F8827B85F39F0B93FCCF3869577952D
:101F40006795B395D9F73EF4909580957095619516
:101F50007F4F8F4F9F4F0895E89409C097FB3EF441
:101F600090958095709561957F4F8F4F9F4F9923E6
:101F7000A9F0F92F96E9BB279395F6958795779564
:101F80006795B795F111F8CFFAF4BB0F11F460FF24
:101F90001BC06F5F7F4F8F4F9F4F16C0882311F07C
:101FA00096E911C0772321F09EE8872F762F05C090
:101FB000662371F096E8862F70E060E02AF09A952B
:101FC000660F771F881FDAF7880F9695879597F920
:101FD000089597F99F6780E870E060E008959FEFAB
:101FE00080EC089500240A941616170618060906B0
:101FF000089500240A94121613061406050608957F
:10200000092E0394000C11F4882352F0BB0F40F406
:10201000BF2B11F460FF04C06F5F7F4F8F4F9F4F46
:10202000089557FD9058440F551F59F05F3F71F0C8
:102030004795880F97FB991F61F09F3F79F087952F
:102040000895121613061406551FF2CF4695F1DFB8
:1020500008C0161617061806991FF1CF8695710548
:10206000610508940895E894BB2766277727CB017C
:1020700097F908950E944D100C9400100E94F20FE1
:1020800038F00E94F90F20F0952311F00C94E90F1D
:102090000C94EF0F11240C9434100E94111070F363
:1020A000959FC1F3950F50E0551F629FF001729FFD
:1020B000BB27F00DB11D639FAA27F00DB11DAA1F0C
:1020C000649F6627B00DA11D661F829F2227B00D59
:1020D000A11D621F739FB00DA11D621F839FA00DE4
:1020E000611D221F749F3327A00D611D231F849F34
:1020F000600D211D822F762F6A2F11249F5750408B
:102100009AF0F1F088234AF0EE0FFF1FBB1F661F05
:10211000771F881F91505040A9F79E3F510580F0CE
:102120000C94E90F0C9434105F3FE4F3983ED4F321
:10213000869577956795B795F795E7959F5FC1F772
:10214000FE2B880F911D9695879597F908950E940B
:10215000AC10880B990B0895990F0008550FAA0B26
:10216000E0E8FEEF16161706E807F907C0F01216AA
:102170001306E407F50798F0621B730B840B950BAD
:1021800039F40A2661F0232B242B252B21F4089502
:102190000A2609F4A140A6958FEF811D811D08959F
:0421A000F894FFCFE1
:1021A4000506064572726F7280000000008C03EC15
:1021B400021903D9034A0328033C030D0A00436CA4
:1021C4006F636B20537461727465640044656320AB
:1021D400203420323032310031323A34323A303322
:1021E4000054696D6520496E76616C6964005469B8
:1021F4006D652055706461746564004D6F64653A63
:10220400200053657474696E67206D6F6465207473
:082214006F2054494D45000004
:00000001FF
