:100000000C9469000C9491000C9491000C94910054
:100010000C9491000C9491000C9491000C9491001C
:100020000C9491000C9491000C9491000C9491000C
:100030000C9491000C9491000C9491000C949100FC
:100040000C94410A0C9491000C94B10A0C948B0A04
:100050000C9491000C9491000C9491000C949100DC
:100060000C9491000C9491001F1C1F1E1F1E1F1F3B
:100070001E1F1E1F00000000240027002A00000091
:100080000000250028002B000000000800020100ED
:100090000003040700000000000000000000000052
:1000A00023002600290004040404040404040202BA
:1000B00002020202030303030303010204081020E7
:1000C0004080010204081020010204081020E30A05
:1000D000391011241FBECFEFD8E0DEBFCDBF11E035
:1000E000A0E0B1E0E6E5F7E202C005900D92AA3487
:1000F000B107D9F722E0AAE4B1E001C01D92A93707
:10010000B207E1F710E0C8E6D0E004C02197FE0195
:100110000E94AC10C736D107C9F70E94AB0B0C94F4
:100120009E130C940000CF92DF92EF92FF92CF9338
:10013000DF93B0916002A0E08111AB2F809161024A
:1001400090E0880F991FAC0144565F4FC090660243
:10015000D0906702E0906802F090690230E020E001
:10016000FA01C591D491E881B90190E080E0EB23D8
:10017000EA130AC02F5F3F4F6C157D058E059F0562
:1001800078F36FEF7FEFCB01DF91CF91FF90EF908E
:10019000DF90CF900895833081F028F4813099F07A
:1001A0008230A9F008958730A9F08830C9F08430F2
:1001B000B1F4809180008F7D03C0809180008F77A3
:1001C00080938000089584B58F7784BD089584B5A9
:1001D0008F7DFBCF8091B0008F778093B000089522
:1001E0008091B0008F7DF9CFCF93DF93282F30E03F
:1001F000F901E857FF4F8491F901E654FF4FD4917C
:10020000F901EA55FF4FC491CC23A1F081110E945E
:10021000CB00EC2FF0E0EE0FFF1FE456FF4FA5914F
:10022000B491EC91ED2381E090E009F480E0DF915E
:10023000CF91089580E090E0FACF1F93CF93DF93A2
:10024000282F30E0F901E857FF4F8491F901E65477
:10025000FF4FD491F901EA55FF4FC491CC23A9F087
:10026000162F81110E94CB00EC2FF0E0EE0FFF1F44
:10027000E258FF4FA591B4918FB7F894EC9111110A
:1002800008C0D095DE23DC938FBFDF91CF911F9103
:100290000895DE2BF8CFCF93DF9390E0FC01E65476
:1002A000FF4F24918A559F4FFC0184918823C9F008
:1002B00090E0880F991FFC01EC58FF4FA591B49175
:1002C000FC01E258FF4FC591D49161110DC09FB759
:1002D000F8948C91209582238C93888128232883FD
:1002E0009FBFDF91CF910895623051F49FB7F8948A
:1002F0003C91822F809583238C93E8812E2BEFCF26
:100300008FB7F894EC912E2B2C938FBFEACF3FB789
:10031000F89480914D0190914E01A0914F01B091C0
:10032000500126B5A89B05C02F3F19F00196A11DCD
:10033000B11D3FBFBA2FA92F982F8827BC01CD012F
:10034000620F711D811D911D42E0660F771F881F8E
:10035000991F4A95D1F708958F929F92AF92BF92BD
:10036000CF92DF92EF92FF924B015C010E948701D6
:100370006B017C010E9487016C197D098E099F0920
:10038000683E734081059105A8F321E0821A910827
:10039000A108B10888EEC80E83E0D81EE11CF11C4C
:1003A00081149104A104B10429F7FF90EF90DF902C
:1003B000CF90BF90AF909F908F900895CF92DF9293
:1003C000EF92FF920F931F93CF93DF93CDB7DEB7DA
:1003D000C054D1400FB6F894DEBF0FBECDBF2FB7CB
:1003E000F8948091510190915201A0915301B091E4
:1003F00054012FBF409162025091630260916402E8
:10040000709165028C019D01041B150B260B370BA7
:10041000B901A801403D57406105710590F48091F4
:100420006A02C05CDE4F0FB6F894DEBF0FBECDBFD0
:10043000DF91CF911F910F91FF90EF90DF90CF90C0
:1004400008958093620290936302A0936402B09334
:10045000650210925D0210925C0210925B02109293
:100460005A021092590262E080915E020E944B0192
:1004700061E070E080E090E00E94AC0161E080917A
:100480005E020E944B0160E080915E020E941D01AD
:1004900080915F028551823020F58BE291E10197D6
:1004A000F1F762E080915E020E944B0180916B0245
:1004B00090E08230910538F0880F991F880F991FBE
:1004C00005970197F1F7F89480E00E9493006F3F41
:1004D0007F4F8F4F9F4F61F410926A02789480E0B3
:1004E000A0CF64E170E080E090E00E94AC01D9CF41
:1004F00081E00E9493006F3F7F4F8F4F9F4F61F3CA
:100500008E010F5F1F4F6E018FEBC81A8EEFD80A56
:10051000780180E00E949300F701608371838283F9
:10052000938381E00E949300F7016483758386833F
:100530009783F8E0EF0EF11CEC14FD0451F778946A
:1005400030E020E0F801C080D180E280F380448177
:10055000558166817781FFEFCF16DF06EF06FF0634
:1005600031F04F3F8FEF58076807780719F4109262
:100570006A02B5CFF90183E0F595E7958A95E1F731
:10058000E75AFD4F8081880FC416D506E606F706A8
:1005900010F180832F5F3F4F085F1F4F28323105D6
:1005A00089F640915D022091590280915A02280FEC
:1005B0003327331F80915B02280F311D80915C022D
:1005C000820F932F911D99274817190681F681E014
:1005D00080936A0226CF8160DCCFAF92BF92CF9228
:1005E000DF92EF92FF920F931F93CF93DF936C01F3
:1005F0007B018B01040F151FEB015E01AE18BF08D4
:10060000C017D10759F06991D601ED91FC91019085
:10061000F081E02DC6010995892B79F7C501DF919D
:10062000CF911F910F91FF90EF90DF90CF90BF90EF
:10063000AF900895FC01538D448D252F30E0842F19
:1006400090E0821B930B541710F0CF9608950197FA
:100650000895FC01918D828D981761F0A28DAE0FE7
:10066000BF2FB11D5D968C91928D9F5F9F73928F6E
:1006700090E008958FEF9FEF0895FC01918D828D9A
:10068000981731F0828DE80FF11D858D90E0089567
:100690008FEF9FEF0895FC01918D228D892F90E0BF
:1006A000805C9F4F821B91098F739927089585E580
:1006B00091E00E944B0321E0892B09F420E0822F76
:1006C000089580E090E0892B29F00E945703811162
:1006D0000C9400000895FC01A48DA80FB92FB11D42
:1006E000A35ABF4F2C91848D90E001968F73992768
:1006F000848FA689B7892C93A089B1898C91837046
:1007000080648C93938D848D981306C00288F3893E
:10071000E02D80818F7D80830895EF92FF920F936B
:100720001F93CF93DF93EC0181E0888F9B8D8C8D9D
:1007300098131AC0E889F989808185FF15C09FB791
:10074000F894EE89FF896083E889F9898081837054
:10075000806480839FBF81E090E0DF91CF911F9103
:100760000F91FF90EF900895F62E0B8D10E00F5F24
:100770001F4F0F731127E02E8C8D8E110CC00FB6FA
:1007800007FCFACFE889F989808185FFF5CFCE0192
:100790000E946B03F1CFEB8DEC0FFD2FF11DE35A9F
:1007A000FF4FF0829FB7F8940B8FEA89FB89808115
:1007B0008062CFCFCF93DF93EC01888D8823B9F08F
:1007C000AA89BB89E889F9898C9185FD03C080815C
:1007D00086FD0DC00FB607FCF7CF8C9185FFF2CFD9
:1007E000808185FFEDCFCE010E946B03E9CFDF91C1
:1007F000CF910895FC018781811181850895CF9261
:10080000DF92EF92FF920F931F93CF93DF93EC0150
:100810008FB7F894C0905101D0905201E0905301ED
:10082000F09054018FBF88810E94F4009C018E815A
:1008300091E0811104C0232B21F490E002C0232B0E
:10084000E1F74E855F856889798997018601041BE8
:10085000150B260B370B49815A816B817C8104175C
:1008600015072607370778F41986CA86DB86EC86D3
:10087000FD868F81DF91CF911F910F91FF90EF90B7
:10088000DF90CF9008958F8188879F83292F282715
:100890002987981751F3CE86DF86E88AF98AE5CF53
:1008A000CF93DF93EC018D8160E0811162E088815C
:1008B0000E944B0188810E94F4009C0181E0211577
:1008C000310509F480E08F838E81882329F091E03F
:1008D000232B09F090E09F832FB7F894809151016A
:1008E00090915201A0915301B09154012FBF8A877A
:1008F0009B87AC87BD872F81288719868E879F8726
:10090000A88BB98BDF91CF910895DC0150E0E8E628
:10091000F0E081E0861730F49491490F511D8F5F0C
:100920003196F8CF633038F0CD0183709927892B49
:1009300011F44F5F5F4F9D012D5F3F4F3695279517
:10094000369527956DE671E0A69FC001A79F900D93
:10095000B69F900D11240197820F931F840F951F4E
:100960000895FC019F012F5F3F4F80818F7E803271
:1009700069F080E02AE0919130ED390F3A3040F48F
:10098000829F900D112480ED890FF5CFF901EACFF8
:100990000895FC0181819FEF980F9C3068F592814A
:1009A0002FEF290F2F3140F52381283128F524819D
:1009B0002C3310F525812C33F8F48230F9F49E3174
:1009C000D8F49D3139F5208130E02053384FC901EA
:1009D00083709927892B81F4C90164E670E00E9435
:1009E0006A10892BB9F4C90160E971E00E946A10AC
:1009F0009C0181E0232B79F080E008959F3151F430
:100A00008150990B67E070E00E947E108095909570
:100A10008170089581E008950F931F93CF93DF9322
:100A20008B01EC0169817A816115710551F0CE016C
:100A3000F80109951816190624F00980DA81C02DED
:100A4000F1CFCE01DF91CF911F910F91089560E01A
:100A50000E941D018BE090E00197F1F708954F92FD
:100A60005F926F927F928F929F92AF92BF92CF923E
:100A7000DF92EF92FF920F931F93CF93DF93FC01CE
:100A80002281338122303105F4F05B016C012C01AD
:100A9000F4E04F0E511C7201F701C081D181209703
:100AA000D1F3B501CE010E940C054C01FC0101817E
:100AB000128101151105C1F4E414F50461F7F60182
:100AC000978386831486DF91CF911F910F91FF90BA
:100AD000EF90DF90CF90BF90AF909F908F907F90DE
:100AE0006F905F904F900895B501C8010E940C056A
:100AF000FC0161807280F40112821182FC01128279
:100B00001182B801CE01F5010995F70118161906F1
:100B10006CF0D183C0837E01FFEFEF1AFF0A898159
:100B20009A81009781F41A8309831CC01183008382
:100B30007801FFEFEF1AFF0AF80181819281009797
:100B4000D1F08C01CE01EC01DCCFEC0189819A81DE
:100B50000097D9F77A8269827E01FFEFEF1AFF0AC8
:100B60009BCF8C01F801818192810097D1F772822D
:100B700061827801F2CFD283C183E8CFDC01149681
:100B8000ED91FC9115971C968C911C978823B1F0E0
:100B90001A962D913C911B97621773077CF018965B
:100BA000ED91FC911997261737075CF43097C1F047
:100BB0000180F281E02D2F5F3F4FF5CF30E020E044
:100BC000F2CF2617370771F481E01C968C931C979F
:100BD0001B963C932E931A971996FC93EE931897B5
:100BE000CF010895F0E0E0E0FBCF0E94BE05009742
:100BF00019F0FC018081089580E00895CF9377FD7E
:100C00000EC0FC01228133816217730744F4C42FA4
:100C10000E94BE05FC01C08381E0CF91089580E071
:100C2000FCCFFC01828193810895CF93DF93EC0187
:100C3000E881F9810190F081E02DCE010995181627
:100C4000190644F4E881F9810684F785E02DCE0188
:100C50000995EECFDF91CF9108950F931F93CF9316
:100C6000DF93D0916F0210916C0200916D02C8E089
:100C70006D2F661F6627661F802F0E941D01DD0FE6
:100C800061E0812F0E941D0160E0812F0E941D0103
:100C9000C15071F761E080916E020E941D0160E019
:100CA00080916E02DF91CF911F910F910C941D01E5
:100CB000EF92FF921F93CF93DF937C01D0E0C0E0CF
:100CC00010E0F70180810E94F4000C2E01C0880F13
:100CD0000A94EAF7182B61E0F70181810E941D0157
:100CE00060E0F70181810E941D012196C830D10585
:100CF00041F7812FDF91CF911F91FF90EF900895E1
:100D0000FF920F931F93CF93DF938C01D62FF42E76
:100D1000C0E06D2F6170F80180810E941D0161E0CB
:100D2000F80181810E941D01C73039F4FF2029F0AC
:100D300060E0F80180810E944B0160E0F801818150
:100D40000E941D01D695CF5FC83019F7DF91CF9172
:100D50001F910F91FF9008951F93CF93DF93EC01A4
:100D6000162F60E08A810E941D0161E08A810E9445
:100D70004B0160E089810E941D0161E089810E9430
:100D80004B0161E088810E944B0161E08A810E94F1
:100D90001D018BE090E00197F1F7412F4170612F29
:100DA000CE01DF91CF911F910C9480061F93CF93BA
:100DB000DF93EC016EEB80917002909171020E94C2
:100DC000AC062D811AE0822F612F0E945010682FEF
:100DD000660F680F660F620F40E08091700290917D
:100DE00071020E9480062C81822F612F0E94501078
:100DF000682F660F680F660F620F40E080917002E7
:100E0000909171020E9480062B81822F612F0E9497
:100E10005010682F660F680F660F620F40E08091D8
:100E20007002909171020E9480062A81822F612FA8
:100E30000E945010682F660F680F660F620F40E027
:100E400080917002909171020E9480062981822F08
:100E5000612F0E945010682F660F680F660F620F97
:100E600040E080917002909171020E94800688811A
:100E70004A81698190E00E948504069667E070E0EF
:100E80000E946A10682F811101C067E040E08091E4
:100E90007002909171020E9480062881822F6AE080
:100EA0000E945010682F660F680F660F620F40E0B7
:100EB00080917002909171020E94800640E060E093
:100EC00080917002909171020E948006E091700200
:100ED000F09171028281DF91CF911F910C942705CF
:100EE000CF92DF92EF92FF920F931F93CF93DF93F6
:100EF00000D000D000D0CDB7DEB76FEB809170028C
:100F0000909171020E94AC068091700290917102E2
:100F10000E9458068F77282F30E0F4E0359527950A
:100F2000FA95E1F7922F990F990F022F091B000FE5
:100F3000080F80917002909171020E945806282F2C
:100F400030E0A4E035952795AA95E1F7922F990F07
:100F5000990FF22EF91AFF0CF80E80917002909101
:100F600071020E94580686FF77C0982F9F71292F23
:100F700030E0E4E035952795EA95E1F7322F330F1D
:100F8000330F122F131B110F190F85FD145F809162
:100F90007002909171020E945806282F30E094E070
:100FA000359527959A95E1F7922F990F990FE22E93
:100FB000E91AEE0CE80E80917002909171020E9485
:100FC0005806282F30E044E0359527954A95E1F7FB
:100FD000922F990F990FD22ED91ADD0CD80E80912D
:100FE0007002909171020E94580680917002909157
:100FF00071020E945806482F50E064E055954795CD
:101000006A95E1F7942F990F990FC42EC91ACC0C49
:10101000C80E80917002909171020E945806E09172
:101020007002F091710282810E94270596014E2D77
:10103000512F6F2D702F80E090E026960FB6F89418
:10104000DEBF0FBECDBFDF91CF911F910F91FF90FB
:10105000EF90DF90CF900895282F30E074E0359521
:1010600027957A95E1F7922F990F990F122F191B57
:10107000110F180F8CCFCF93682F61608091700291
:10108000909171020E94AC06809170029091710261
:101090000E945806C82FE0917002F091710282817F
:1010A0000E9427058C2FCF910895FC01019000200C
:1010B000E9F73197AF01481B590BBC0185E591E079
:1010C0000C94ED02EF92FF921F93CF93DF93DC011C
:1010D00012962D913C9113971216130634F5213078
:1010E0003105C1F0EC018C819D81FC01E180F28031
:1010F00010810E941513FD82EC828A819B810197E9
:101100009B838A831C86812FDF91CF911F91FF9053
:10111000EF900895ED91FC910484F585E02DDF9129
:10112000CF911F91FF90EF90099410E0ECCFEF92D8
:10113000FF921F93CF93DF93FC016281738110E0D4
:1011400016161706DCF4EC01148661307105E9F01F
:10115000625071090E94BE057C01FC01818192816F
:10116000FC0110810E941513F70112821182FF8287
:10117000EE828A819B8101979B838A83812FDF91F5
:10118000CF911F91FF90EF90089584819581FC018C
:1011900010810E9415131D821C821F821E821B82D9
:1011A0001A82ECCF1F93CF93DF9377FD3EC0DC0113
:1011B00012962D913C91139762177307B4F5611540
:1011C000710549F4ED91FC910684F785E02DDF91DE
:1011D000CF911F910994215031092617370731F417
:1011E000ED91FC910484F585E02DF1CFEC01615087
:1011F00071090E94BE05DC011196ED91FC911297D8
:1012000010812181328112963C932E931197CF0148
:101210000E9415138A819B8101979B838A831C8678
:10122000812FDF91CF911F91089510E0F9CFFF92A8
:101230000F931F93CF93DF93DC0112960D911C91B6
:1012400013970115110559F4ED91FC910480F58176
:10125000E02DDF91CF911F910F91FF900994F62E11
:10126000EC0183E090E00E9479122C813D81FC0129
:1012700032832183F0829D838C830F5F1F4F1B83FA
:101280000A831C8681E0DF91CF911F910F91FF901F
:101290000895DF92EF92FF920F931F93CF93DF9306
:1012A000EB01642FDC0112964D915C911397C417EA
:1012B000D5076CF0ED91FC910480F581E02DDF9174
:1012C000CF911F910F91FF90EF90DF90099420979D
:1012D00031F4ED91FC910680F781E02DF0CFD62E10
:1012E0008C0183E090E00E9479127C01FC01108265
:1012F00012821182BE0161507109C8010E94BE05AF
:10130000D701DC92FC012181328112963C932E930D
:101310001197F282E182D80112968D919C911397D8
:10132000019613969C938E9312971C961C9281E0C3
:10133000DF91CF911F910F91FF90EF90DF90089573
:101340001F93CF93DF93EC01162F83E090E00E9470
:101350007912FC011282118210832C813D81232B92
:1013600089F0EE81FF81928381839F838E838A81BE
:101370009B8101969B838A831C8681E0DF91CF91BC
:101380001F9108959D838C83F0CF62E88930F9F036
:1013900010F563EA8430D9F070F46BEE8130B9F067
:1013A0006AE08130A0F066E4823089F062EC83303C
:1013B00071F06FEF0CC062E1863049F062E986306F
:1013C00030F06BEC873019F062E0883091F782EFF3
:1013D00091E00C94A00966E18534C9F378F467EFD5
:1013E0008D32A9F320F467E88A3289F3E2CF67E609
:1013F0008F3269F36EE1833451F3DBCF67E78237D5
:1014000031F338F467E1863411F362E78F36F9F28D
:10141000D0CF66E38437D9F26AE78637C1F2C9CF05
:10142000EF92FF920F931F93CF93DF9300D000D0E2
:1014300000D0CDB7DEB71E821D8285E4898382E7A6
:101440008A838B839FE69C838D838E010F5F1F4F62
:101450007E0187E0E80EF11CF80181918F010E9466
:10146000C5090E151F05C1F726960FB6F894DEBF05
:101470000FBECDBFDF91CF911F910F91FF90EF90E5
:1014800008951F920F920FB60F9211242F933F933E
:101490008F939F93AF93BF9380915101909152018D
:1014A000A0915301B091540130914C0123E0230FDE
:1014B0002D3758F50196A11DB11D20934C01809345
:1014C000510190935201A0935301B0935401809124
:1014D0004D0190914E01A0914F01B09150010196A4
:1014E000A11DB11D80934D0190934E01A0934F011A
:1014F000B0935001BF91AF919F918F913F912F91E8
:101500000F900FBE0F901F90189526E8230F02969C
:10151000A11DB11DD2CF1F920F920FB60F921124B1
:101520002F933F934F935F936F937F938F939F93EB
:10153000AF93BF93EF93FF9385E591E00E946B0318
:10154000FF91EF91BF91AF919F918F917F916F919B
:101550005F914F913F912F910F900FBE0F901F9071
:1015600018951F920F920FB60F9211242F938F93FD
:101570009F93EF93FF93E0916501F0916601808165
:10158000E0916B01F0916C0182FD1BC09081809114
:101590006E018F5F8F7320916F01821741F0E09190
:1015A0006E01F0E0EB5AFE4F958F80936E01FF9134
:1015B000EF919F918F912F910F900FBE0F901F90E1
:1015C00018958081F4CFCF93DF93E5E5F1E01382A6
:1015D000128288EE93E0A0E0B0E084839583A68336
:1015E000B7838AE091E09183808385EC90E09587D2
:1015F000848784EC90E09787868780EC90E0918BDD
:10160000808B81EC90E0938B828B82EC90E0958BC9
:10161000848B86EC90E0978B868B118E128E138EC6
:10162000148EE2E7F2E086E0808385E0818387E044
:101630008283F0937102E0937002CCE6D2E084E002
:10164000888382E0898383E08A8361E084E00E946A
:101650004B0161E082E00E944B0161E083E00E9467
:101660004B0160E084E00E941D0160E082E00E9486
:101670001D0160E083E00E941D011B820E942D0677
:10168000A9E5B2E08AE015968C9315978BE0169643
:101690008C931697E4ECF0E0E4911796EC9317978F
:1016A000E0EBF0E0E4911896EC93189740E85EE3E5
:1016B00060E070E01D964D935D936D937C93509721
:1016C000E7E4F2E08EE0808349E150E060E070E022
:1016D000418352836383748381E085838683E5E35A
:1016E000F2E09FE090834183528363837483858318
:1016F0008683E3E2F2E090E1908341835283638347
:10170000748385838683E1E1F2E091E190834183F4
:1017100052836383748385838683EFEFF1E093E1E3
:101720009083418352836383748385838683E2EF4E
:10173000F1E08CE191E0918380831582148217821D
:1017400016821382128211861086138612861486E0
:10175000DF91CF910895CF93DF93CDB7DEB72C976C
:101760000FB6F894DEBF0FBECDBF789484B582600B
:1017700084BD84B5816084BD85B5826085BD85B535
:10178000816085BD80916E00816080936E001092B3
:10179000810080918100826080938100809181002E
:1017A00081608093810080918000816080938000BF
:1017B0008091B10084608093B1008091B00081601D
:1017C0008093B00080917A00846080937A00809149
:1017D0007A00826080937A0080917A0081608093A1
:1017E0007A0080917A00806880937A001092C1001C
:1017F0008FEF80936F020E942D0662E080915E025F
:101800000E944B012FB7F8948091510190915201A1
:10181000A0915301B09154012FBF805D9740A10961
:10182000B1098093620290936302A0936402B09323
:10183000650287E380936B02009170021091710240
:1018400060E0F80181810E944B0160E0F801808135
:101850000E944B0160E0F80182810E944B0187E405
:1018600092E00E94500485E392E00E94500483E2DB
:1018700092E00E94500481E192E00E9450048FEFB8
:1018800091E00E94500461E089E00E944B0161E018
:1018900088E00E944B01E0916501F091660182E0D1
:1018A0008083E0916101F09162011082E091630117
:1018B000F09164018FEC808310926D01E0916901D9
:1018C000F0916A0186E08083E0916701F091680100
:1018D000808180618083E0916701F091680180815F
:1018E00088608083E0916701F09168018081806861
:1018F0008083E0916701F091680180818F7D808312
:1019000082E391E00E9455088EE391E00E94550821
:1019100087E491E00E9455088BE391E00E94B104B6
:101920008F838BE0888786E391E00E94B1048987EA
:101930008EE391E00E94B1048A8781E491E00E94E5
:10194000B1048B8784E491E00E94B1048C870E94EB
:10195000700729833A834B835C836D837E83CE013A
:1019600001960E94C904811106C00E94100ACE018E
:1019700007960E94D6068EE80E943B0887FF1BC090
:101980008EE80E943B08182F6EE8809170029091BB
:1019900071020E94AC06612F6F7740E08091700267
:1019A000909171020E948006E0917002F0917102A4
:1019B00082810E94270580E80E943B0887FF1BC0A8
:1019C00080E80E943B08182F60E880917002909197
:1019D00071020E94AC06612F6F7740E08091700227
:1019E000909171020E948006E0917002F091710264
:1019F00082810E9427050E94700729833A834B83C6
:101A00005C836D837E83632F822F90E00E94850428
:101A10009C01A8E1B0E00E9492102C814B015C0176
:101A2000820E911CA11CB11CA5019401ACE3B0E095
:101A30000E94A1102D817B018C01E20EF11C011D81
:101A4000111DA80197010E94A1102E816B017C013C
:101A5000C20ED11CE11CF11C8F814985688590E084
:101A60000E9485049C01A8E1B0E00E9492102A85A2
:101A70004B015C01820E911CA11CB11CA5019401BB
:101A8000ACE3B0E00E94A1102B854B015C01820EFB
:101A9000911CA11CB11CA50194010E94A1102C85D0
:101AA000620F711D811D911DC616D706E806F90645
:101AB00020F4CE0107960E94D6068E01095F1F4FC3
:101AC0005E0126E0A20EB11C43E0242E312C8824B6
:101AD0008394912C8C0E9D1E36E0830E911CF12C6C
:101AE0006AEF70E080E090E00E94AC0187E492E051
:101AF0000E94FF0385E392E00E94FF0383E292E0ED
:101B00000E94FF0381E192E00E94FF038FEF91E0CA
:101B10000E94FF0387E492E00E94FA03882309F4FD
:101B200047C010924B0110924A0180914A01909156
:101B30004B01892B09F06FC031E03F1508F46BC0F1
:101B400060E089E00E941D0160E088E00E941D01C4
:101B5000F39484E0F812C4CF1C861B861A861F8279
:101B600081E0282F2150330BF901E859FF4FE49110
:101B7000823009F4EF5F91E0980FEE2309F451C031
:101B8000888781E0898780914A0190914B0182305A
:101B9000910509F423C108F046C0009709F4A4C0D8
:101BA000019709F4E7C010924B0110924A01CBC093
:101BB00085E392E00E94FA03882339F081E090E007
:101BC00090934B0180934A01B0CF83E292E00E9450
:101BD000FA03882339F0E2E0F0E0F0934B01E09360
:101BE0004A01A3CF81E192E00E94FA03882329F001
:101BF00030924B0120924A0198CF8FEF91E00E94E2
:101C0000FA03882309F491CF24E030E030934B01AC
:101C100020934A018ACF61E089E00E941D0161E0C2
:101C200094CF892F9ECF8330910509F4A4C10497E6
:101C300009F0B9CF87E480937C0080917A008064BA
:101C400080937A0080917A0086FDFCCF80917800A5
:101C500020917900322F282F4AE0429FC001439FF4
:101C6000900D11246FEF73E00E947E10072E000C80
:101C7000880B990B0E9457112B013C016E01F2E079
:101C8000CF0ED11C9E012F5F3F4F7901C301B201DE
:101C90000E942611F60161936F0170E090E080E0F0
:101CA0000E9457119B01AC01C301B2010E94B21006
:101CB00020E030E040E251E40E94E3112B013C01BE
:101CC000AC14BD0419F780E8898386E58E8382EF22
:101CD00091E00E941506F70181917F010E94C509DC
:101CE000E814F904C1F72FC00E9470072F833887CA
:101CF00049875A876B877C87C8010E94C904811174
:101D000002C00E94100A8A852AE0622F0E945010A9
:101D100089839A838B850E9450108B839C838C854A
:101D20000E9450108D839E8382EF91E00E941506E1
:101D3000CE0101967C01F70181917F010E94C509C6
:101D4000E016F106C1F765E070E082EF91E00E94D5
:101D5000D20880936F020E942D0680E090E0892BCC
:101D600009F4BDCE0E945703882309F4B0CE0E9427
:101D70000000ADCE0E9470072F83388749875A87AD
:101D80006B877C87C8010E94C904811102C00E9430
:101D9000100A89852AE0622F0E94501089839A8355
:101DA00088850E9450108B839C838F8190E06AE02D
:101DB00070E00E946A106D838E8382EF91E00E9432
:101DC00015069E012F5F3F4F7901F70181917F0139
:101DD0000E94C5090E151F05C1F7B5CF0E94DE018F
:101DE000882309F45AC080915F028C3009F458C0EE
:101DF00048F48B3001F1C12CD12C90ECE92E9FE7F7
:101E0000F92E43C085518230B0F770905B02672D88
:101E100070E0762F662766277F7780915C02682BBB
:101E200090E080E00E9455112DEC3CEC4CEC5DE321
:101E30000E94E31151C060915B0270E090E080E08D
:101E40000E9455112B013C01F0905C02F7FE0AC084
:101E5000AC019B0160E070E080E89FEB0E94B21053
:101E60002B013C016F2D6F7070E090E080E00E94CC
:101E700057112DEC3CEC4CEC5DE30E94E311A30107
:101E800092010E94B3106B017C01A7019601C7016A
:101E9000B6010E945012882341F10E94100A53CFCC
:101EA00070905B02672D70E090E080E00E94551119
:101EB0006B017C0160915C026F7070E090E080E0EB
:101EC0000E9457112DEC3CEC4CEC5DE30E94E311B9
:101ED000A70196010E94B3106B017C0177FED5CF5C
:101EE000F7FAF094F7F8F094D0CFC701B6010E944A
:101EF0001F11262F80E8898327FF2BC08DE2273F03
:101F00000CF080E88A838DE2273F2CF4822F6AE070
:101F10000E945C1081958B83273F5CF5822F6AE0DD
:101F20000E945C1091959C838AE28D8383E48E836A
:101F300082EF91E00E9415069E012F5F3F4F7901CD
:101F4000F70181917F010E94C509E016F106C1F7F2
:101F5000FACE8A8380E82A3024F0822F6AE00E9439
:101F600050108B832A302CF0822F6AE00E945C1084
:101F7000DACF90E0D8CF0E94DE018823B9F18091BA
:101F80005F028B3030F08D3058F08551823008F48C
:101F900040C0C12CD12C80ECE82E8FE7F82E1EC05B
:101FA00060915A0270E090E080E00E9457112DECA1
:101FB0003CEC4CEC5DE30E94E3116B017C01609111
:101FC000590270E090E080E00E9457119B01AC0143
:101FD000C701B6010E94B3106B017C01A7019601F5
:101FE000C701B6010E945012882329F10E94100AED
:101FF00082EF91E00E9415069E012F5F3F4F79010D
:10200000F70181917F010E94C5090E151F05C1F7D7
:102010009ACE6091590270915A02762767277627E7
:1020200090E080E00E9455112DEC3CEC4CEC5DE31F
:102030000E94E311D1CFC701B6010E942611262FBD
:1020400080E82A3020F0822F6AE00E9450108983B5
:1020500090E02A3020F0822F6AE00E9450109A838C
:1020600080E88B838AE28C838FE28D838FE68E8378
:10207000BFCF8CE191E09093F3018093F2018091C6
:10208000F6019091F701009751F0FC012181328116
:102090003093F7012093F6010E941513F0CF0895B5
:1020A000991B79E004C0991F961708F0961B881FAA
:1020B0007A95C9F78095089587FB082E062687FD37
:1020C000819567FD61950E9450100EF4919507FC73
:1020D00081950895AA1BBB1B51E107C0AA1FBB1F16
:1020E000A617B70710F0A61BB70B881F991F5A95A4
:1020F000A9F780959095BC01CD01089597FB072E17
:1021000016F4009407D077FD09D00E946A1007FCEE
:1021100005D03EF4909581959F4F089570956195F7
:102120007F4F0895A29FB001B39FC001A39F700D80
:10213000811D1124911DB29F700D811D1124911DCF
:1021400008950E949210A59F900DB49F900DA49F9A
:10215000800D911D11240895EE0FFF1F0590F4913D
:10216000E02D09945058BB27AA270E94CA100C944E
:10217000A9110E949B1138F00E94A21120F039F49D
:102180009F3F19F426F40C9498110EF4E095E7FBA8
:102190000C949211E92F0E94BA1158F3BA176207F2
:1021A00073078407950720F079F4A6F50C94DC11E9
:1021B0000EF4E0950B2EBA2FA02D0B01B901900162
:1021C0000C01CA01A0011124FF27591B99F0593FA6
:1021D00050F4503E68F11A16F040A22F232F342FEE
:1021E0004427585FF3CF469537952795A795F0403C
:1021F0005395C9F77EF41F16BA0B620B730B840B51
:10220000BAF09150A1F0FF0FBB1F661F771F881F08
:10221000C2F70EC0BA0F621F731F841F48F4879560
:1022200077956795B795F7959E3F08F0B0CF939552
:10223000880F08F09927EE0F9795879508950E94CB
:1022400026116894B1110C94DD1108950E94C211F9
:1022500088F09F5798F0B92F9927B751B0F0E1F067
:10226000660F771F881F991F1AF0BA95C9F714C017
:10227000B13091F00E94DC11B1E008950C94DC11B2
:10228000672F782F8827B85F39F0B93FCCF3869550
:1022900077956795B395D9F73EF4909580957095AD
:1022A00061957F4F8F4F9F4F0895E89409C097FB2A
:1022B0003EF490958095709561957F4F8F4F9F4F1D
:1022C0009923A9F0F92F96E9BB279395F695879561
:1022D00077956795B795F111F8CFFAF4BB0F11F424
:1022E00060FF1BC06F5F7F4F8F4F9F4F16C08823CB
:1022F00011F096E911C0772321F09EE8872F762F01
:1023000005C0662371F096E8862F70E060E02AF041
:102310009A95660F771F881FDAF7880F969587952D
:1023200097F9089597F99F6780E870E060E0089555
:102330009FEF80EC089500240A94161617061806DD
:102340000906089500240A941216130614060506B9
:102350000895092E0394000C11F4882352F0BB0F4A
:1023600040F4BF2B11F460FF04C06F5F7F4F8F4FAD
:102370009F4F089557FD9058440F551F59F05F3FE8
:1023800071F04795880F97FB991F61F09F3F79F097
:1023900087950895121613061406551FF2CF469519
:1023A000F1DF08C0161617061806991FF1CF86959B
:1023B0007105610508940895E894BB27662777277F
:1023C000CB0197F908950E94F6110C94A9110E946F
:1023D0009B1138F00E94A21120F0952311F00C946B
:1023E00092110C94981111240C94DD110E94BA11D1
:1023F00070F3959FC1F3950F50E0551F629FF00158
:10240000729FBB27F00DB11D639FAA27F00DB11D70
:10241000AA1F649F6627B00DA11D661F829F2227F9
:10242000B00DA11D621F739FB00DA11D621F839F80
:10243000A00D611D221F749F3327A00D611D231F56
:10244000849F600D211D822F762F6A2F11249F57A4
:1024500050409AF0F1F088234AF0EE0FFF1FBB1FA7
:10246000661F771F881F91505040A9F79E3F510566
:1024700080F00C9492110C94DD115F3FE4F3983ED0
:10248000D4F3869577956795B795F795E7959F5F10
:10249000C1F7FE2B880F911D9695879597F90895A2
:1024A0000E945512880B990B0895990F0008550F3B
:1024B000AA0BE0E8FEEF16161706E807F907C0F0CA
:1024C00012161306E407F50798F0621B730B840BD2
:1024D000950B39F40A2661F0232B242B252B21F4AC
:1024E00008950A2609F4A140A6958FEF811D811D4C
:1024F00008950F931F93CF93DF938230910510F4CB
:1025000082E090E0E0917702F091780230E020E004
:10251000B0E0A0E0309799F42115310509F44AC0E4
:10252000281B390B24303105D8F58A819B81611530
:10253000710589F1FB0193838283FE0111C0408103
:1025400051810281138148175907E0F04817590754
:1025500099F4109761F012960C93129713961C93AE
:102560003296CF01DF91CF911F910F910895009383
:10257000770210937802F4CF2115310551F04217FC
:10258000530738F0A901DB019A01BD01DF01F80111
:10259000C1CFEF01F9CF9093780280937702CDCF2E
:1025A000FE01E20FF31F8193919322503109398389
:1025B0002883D7CF2091750230917602232B41F4E6
:1025C000209102013091030130937602209375022D
:1025D00020910001309101012115310541F42DB701
:1025E0003EB74091040150910501241B350BE09149
:1025F0007502F0917602E217F307A0F42E1B3F0B51
:102600002817390778F0AC014E5F5F4F2417350764
:1026100048F04E0F5F1F50937602409375028193EE
:1026200091939FCFF0E0E0E09CCFCF93DF930097B2
:10263000E9F0FC01329713821282A0917702B091E7
:102640007802ED0130E020E01097A1F42081318183
:10265000820F931F20917502309176022817390757
:1026600009F061C0F0937602E0937502DF91CF919B
:102670000895EA01CE17DF07E8F54A815B819E01E4
:1026800041155105B1F7E901FB83EA83499159915D
:10269000C40FD51FEC17FD0761F48081918102966C
:1026A000840F951FE90199838883828193819B839D
:1026B0008A83F0E0E0E012968D919C911397009749
:1026C000B9F52D913C911197CD010296820F931F80
:1026D00020917502309176022817390739F6309724
:1026E00051F51092780210927702B0937602A0937F
:1026F0007502BCCFD383C28340815181840F951F63
:10270000C817D90761F44E5F5F4F88819981480FE0
:10271000591F518340838A819B8193838283211532
:10272000310509F0B0CFF0937802E09377029ECFA5
:10273000FD01DC01C0CF13821282D7CF10E0C8E6C2
:10274000D0E004C0FE010E94AC102196C936D1072A
:06275000C9F7F894FFCF69
:10275600000079028000000000008D03ED021A03DC
:10276600DA034B0329033D03000000001106490963
:10277600A0091709FE05D20897086208F50515068F
:102786002F054E6F76203239203230323100313803
:0A2796003A33393A3036000D0A00DC
:00000001FF
