:100000000C9462000C948A000C948A000C948A0070
:100010000C948A000C948A000C94FA060C948A00C2
:100020000C948A000C948A000C948A000C948A0028
:100030000C948A000C948A000C948A000C948A0018
:100040000C94B0060C948A000C948A000C948A00DC
:100050000C948A000C948A000C948A000C948A00F8
:100060000C948A000C948A000000000024002700F1
:100070002A0000000000250028002B0004040404CE
:100080000404040402020202020203030303030342
:10009000010204081020408001020408102001021F
:1000A00004081020000000080002010000030407FB
:1000B00000000000000000000000000023002600F7
:1000C0002900EF0A11241FBECFEFD8E0DEBFCDBF5D
:1000D00011E0A0E0B1E0E0E0FCE102C005900D928B
:1000E000AA30B107D9F721E0AAE0B1E001C01D9222
:1000F000A739B207E1F710E0C2E6D0E004C02197CB
:10010000FE010E94BF0BC136D107C9F70E9411073B
:100110000C94FE0D0C940000CF92DF92EF92FF92B0
:10012000CF93DF93B0918B01A0E08111AB2F809131
:100130008C0190E0880F991FAC0148545F4FC0902C
:100140009101D0909201E0909301F090940130E001
:1001500020E0FA01C591D491E881B90190E080E0F6
:10016000EB23EA130AC02F5F3F4F6C157D058E0508
:100170009F0578F36FEF7FEFCB01DF91CF91FF9079
:10018000EF90DF90CF900895833081F028F4813094
:1001900099F08230A9F008958730A9F08830C9F02D
:1001A0008430B1F4809180008F7D03C08091800005
:1001B0008F7780938000089584B58F7784BD0895EC
:1001C00084B58F7DFBCF8091B0008F778093B00096
:1001D00008958091B0008F7DF9CFCF93DF93282FC2
:1001E00030E0F901EC55FF4F8491F901E057FF4FE2
:1001F000D491F901E458FF4FC491CC23A1F08111AF
:100200000E94C400EC2FF0E0EE0FFF1FE854FF4FF8
:10021000A591B491EC91ED2381E090E009F480E0A8
:10022000DF91CF91089580E090E0FACF1F93CF93B4
:10023000DF93282F30E0F901EC55FF4F8491F9014D
:10024000E057FF4FD491F901E458FF4FC491CC23FC
:10025000A9F0162F81110E94C400EC2FF0E0EE0FE0
:10026000FF1FEE58FF4FA591B4918FB7F894EC9112
:10027000111108C0D095DE23DC938FBFDF91CF91A1
:100280001F910895DE2BF8CFCF93DF9390E0FC0110
:10029000E057FF4F249184589F4FFC01849188239D
:1002A000C9F090E0880F991FFC01E859FF4FA59114
:1002B000B491FC01EE58FF4FC591D49161110DC06E
:1002C0009FB7F8948C91209582238C938881282362
:1002D00028839FBFDF91CF910895623051F49FB77B
:1002E000F8943C91822F809583238C93E8812E2B68
:1002F000EFCF8FB7F894EC912E2B2C938FBFEACFD2
:100300003FB7F8948091710190917201A0917301AF
:10031000B091740126B5A89B05C02F3F19F0019636
:10032000A11DB11D3FBFBA2FA92F982F8827BC014F
:10033000CD01620F711D811D911D42E0660F771F77
:10034000881F991F4A95D1F708958F929F92AF9277
:10035000BF92CF92DF92EF92FF924B015C010E941D
:1003600080016B017C010E9480016C197D098E095E
:100370009F09683E734081059105A8F321E0821A28
:100380009108A108B10888EEC80E83E0D81EE11CD0
:10039000F11C81149104A104B10429F7FF90EF909E
:1003A000DF90CF90BF90AF909F908F900895CF92A5
:1003B000DF92EF92FF920F931F93CF93DF93CDB70E
:1003C000DEB7C054D1400FB6F894DEBF0FBECDBF2C
:1003D0002FB7F8948091800190918101A0918201C2
:1003E000B09183012FBF40918D0150918E0160919A
:1003F0008F01709190018C019D01041B150B260B40
:10040000370BB901A801403D57406105710590F4D3
:1004100080919501C05CDE4F0FB6F894DEBF0FBE31
:10042000CDBFDF91CF911F910F91FF90EF90DF90A3
:10043000CF90089580938D0190938E01A0938F01AA
:10044000B09390011092880110928701109286015A
:10045000109285011092840162E0809189010E94CE
:10046000440161E070E080E090E00E94A50161E05D
:10047000809189010E94440160E0809189010E947D
:10048000160180918A018551823020F58BE291E13D
:100490000197F1F762E0809189010E944401809107
:1004A000960190E08230910538F0880F991F880FEF
:1004B000991F05970197F1F7F89480E00E948C004E
:1004C0006F3F7F4F8F4F9F4F61F41092950178944B
:1004D00080E0A0CF64E170E080E090E00E94A501A0
:1004E000D9CF81E00E948C006F3F7F4F8F4F9F4F8D
:1004F00061F38E010F5F1F4F6E018FEBC81A8EEFF5
:10050000D80A780180E00E948C00F7016083718333
:100510008283938381E00E948C00F701648375835A
:1005200086839783F8E0EF0EF11CEC14FD0451F77D
:10053000789430E020E0F801C080D180E280F38040
:100540004481558166817781FFEFCF16DF06EF0684
:10055000FF0631F04F3F8FEF58076807780719F40F
:1005600010929501B5CFF90183E0F595E7958A954D
:10057000E1F7EC57FE4F8081880FC416D506E606DA
:10058000F70610F180832F5F3F4F085F1F4F28321F
:10059000310589F64091880120918401809185017F
:1005A000280F3327331F80918601280F311D80913A
:1005B0008701820F932F911D99274817190681F6FD
:1005C00081E08093950126CF8160DCCFFC0187819B
:1005D000811181850895CF92DF92EF92FF920F9360
:1005E0001F93CF93DF93EC018FB7F894C0908001F5
:1005F000D0908101E0908201F09083018FBF8881CB
:100600000E94ED009C018E8191E0811104C0232B9A
:1006100021F490E002C0232BE1F74E855F856889C5
:10062000798997018601041B150B260B370B49812D
:100630005A816B817C81041715072607370778F4E8
:100640001986CA86DB86EC86FD868F81DF91CF9185
:100650001F910F91FF90EF90DF90CF9008958F81C1
:1006600088879F83292F28272987981751F3CE86BB
:10067000DF86E88AF98AE5CFCF93DF93EC018D819D
:1006800060E0811162E088810E94440188810E94BB
:10069000ED009C0181E02115310509F480E08F8394
:1006A0008E81882329F091E0232B09F090E09F832D
:1006B0002FB7F8948091800190918101A0918201DF
:1006C000B09183012FBF8A879B87AC87BD872F811D
:1006D000288719868E879F87A88BB98BDF91CF914A
:1006E00008954115510529F4EAE7F0E080818F77FC
:1006F00080836A307105B9F0CB01880F991F880F8C
:10070000991F807267706860682B88E10FB6F89453
:10071000A895809360000FBE60936000E0E6F0E073
:10072000808180648083232BD9F483B7817F8460A8
:1007300083BFF89483B7816083BF85B7806685BF28
:100740008F7D85BF7894889583B78E7F83BF78949B
:10075000452B29F4EAE7F0E08081806880830895E2
:1007600083B7817F846083BFF89483B7816083BF40
:100770007894889583B78E7F83BF7894E9CFFC0106
:1007800081819FEF980F9C3068F592812FEF290FA0
:100790002F3140F52381283128F524812C3310F5A1
:1007A00025812C33F8F48230F9F49E31D8F49D3150
:1007B00039F5208130E02053384FC90183709927E3
:1007C000892B81F4C90164E670E00E94970B892BA4
:1007D000B9F4C90160E971E00E94970B9C0181E0C6
:1007E000232B79F080E008959F3151F48150990BCB
:1007F00067E070E00E94AB0B809590958170089542
:1008000081E0089560E00E9416018BE090E001977E
:10081000F1F70895893009F49BC038F5843009F464
:100820007BC090F4813009F462C008F458C0823073
:1008300009F464C0833009F468C0E0910001F0E07D
:10084000E959FE4F8FEF51C0863009F473C008F4A8
:100850006AC0873009F475C0883079F7E0910001EB
:10086000F0E0E959FE4F82E040C0853409F485C0CC
:10087000C8F48D3209F473C048F48A32F1F6E0917D
:100880000001F0E0E959FE4F87E82FC08F3209F4EC
:100890006DC0833491F6E0910001F0E0E959FE4F1C
:1008A0008EE123C0823709F476C060F4863409F4FF
:1008B0006BC08F3611F6E0910001F0E0E959FE4F70
:1008C00082E713C0843709F46DC0863709F0B5CFCD
:1008D000E0910001F0E0E959FE4F8AE706C0E0919F
:1008E0000001F0E0E959FE4F8AE080830895E0912D
:1008F0000001F0E0E959FE4F8BEEF7CFE0910001E7
:10090000F0E0E959FE4F86E4F0CFE0910001F0E01D
:10091000E959FE4F82ECE9CFE0910001F0E0E9599E
:10092000FE4F83EAE2CFE0910001F0E0E959FE4F8B
:1009300082E9DBCFE0910001F0E0E959FE4F82E16E
:10094000D4CFE0910001F0E0E959FE4F8BECCDCF20
:10095000E0910001F0E0E959FE4F82E8C6CFE09156
:100960000001F0E0E959FE4F87EFBFCFE0910001B1
:10097000F0E0E959FE4F87E6B8CFE0910001F0E0E2
:10098000E959FE4F86E1B1CFE0910001F0E0E9596D
:10099000FE4F87E1AACFE0910001F0E0E959FE4F58
:1009A00087E7A3CFE0910001F0E0E959FE4F86E32D
:1009B0009CCFEF92FF920F931F93CF93DF9300D0C2
:1009C00000D000D0CDB7DEB786E0E3E0F1E0DE0195
:1009D000119601900D928A95E1F785E080930001D0
:1009E0008E010F5F1F4F7E0187E0E80EF11CF801BA
:1009F00081918F010E940A048091000181508093AF
:100A000000010E151F0599F726960FB6F894DEBF64
:100A10000FBECDBFDF91CF911F910F91FF90EF904F
:100A20000895CF92DF92EF92FF920F931F93CF938F
:100A3000DF93C5E7D1E08FE6C82E81E0D82E088588
:100A4000F0907501E090760118E0602F661F662730
:100A5000661F8E2D0E941601000F61E08F2D0E94EF
:100A6000160160E08F2D0E941601115071F7219739
:100A7000CC16DD0621F761E0809177010E94160116
:100A800060E080917701DF91CF911F910F91FF90EE
:100A9000EF90DF90CF900C941601EF92FF921F938E
:100AA000CF93DF937C01D0E0C0E010E0F7018081BC
:100AB0000E94ED000C2E01C0880F0A94EAF7182B53
:100AC00061E0F70181810E94160160E0F7018181F8
:100AD0000E9416012196C830D10541F7812FDF9180
:100AE000CF911F91FF90EF900895FF920F931F9366
:100AF000CF93DF938C01D62FF42EC0E06D2F617061
:100B0000F80180810E94160161E0F80181810E9454
:100B10001601C73039F4FF2029F060E0F801808128
:100B20000E94440160E0F80181810E941601D6957F
:100B3000CF5FC83019F7DF91CF911F910F91FF90D0
:100B400008951F93CF93DF93EC01162F60E08A8105
:100B50000E94160161E08A810E94440160E089815F
:100B60000E94160161E089810E94440161E0888150
:100B70000E94440161E08A810E9416018BE090E0AE
:100B80000197F1F7412F4170612FCE01DF91CF9195
:100B90001F910C947505CF92DF92EF92FF920F9305
:100BA0001F93CF93DF9300D000D000D0CDB7DEB736
:100BB0006FEB80917E0190917F010E94A105809151
:100BC0007E0190917F010E944D058F77282F30E0A4
:100BD000F4E035952795FA95E1F7922F990F990F43
:100BE000022F091B000F080F80917E0190917F0159
:100BF0000E944D05282F30E0A4E035952795AA9551
:100C0000E1F7922F990F990FF22EF91AFF0CF80EB7
:100C100080917E0190917F010E944D0586FF77C0F3
:100C2000982F9F71292F30E0E4E035952795EA95BC
:100C3000E1F7322F330F330F122F131B110F190F40
:100C400085FD145F80917E0190917F010E944D058A
:100C5000282F30E094E0359527959A95E1F7922F6B
:100C6000990F990FE22EE91AEE0CE80E80917E01A1
:100C700090917F010E944D05282F30E044E035958A
:100C800027954A95E1F7922F990F990FD22ED91AED
:100C9000DD0CD80E80917E0190917F010E944D0560
:100CA00080917E0190917F010E944D05482F50E078
:100CB00064E0559547956A95E1F7942F990F990F40
:100CC000C42EC91ACC0CC80E80917E0190917F0170
:100CD0000E944D05E0917E01F0917F0182810E948A
:100CE000020496014E2D512F6F2D702F80E090E061
:100CF00026960FB6F894DEBF0FBECDBFDF91CF9121
:100D00001F910F91FF90EF90DF90CF900895282FC3
:100D100030E074E0359527957A95E1F7922F990F99
:100D2000990F122F191B110F180F8CCFCF93682F0B
:100D3000616080917E0190917F010E94A105809168
:100D40007E0190917F010E944D05C82FE0917E01A8
:100D5000F0917F0182810E9402048C2FCF9108952F
:100D60001F920F920FB60F9211242F933F938F93E0
:100D70009F93AF93BF938091800190918101A09147
:100D80008201B09183013091700123E0230F2D3750
:100D900058F50196A11DB11D20937001809380012B
:100DA00090938101A0938201B0938301809171019E
:100DB00090917201A0917301B09174010196A11DEF
:100DC000B11D8093710190937201A0937301B09350
:100DD0007401BF91AF919F918F913F912F910F908F
:100DE0000FBE0F901F90189526E8230F0296A11DA5
:100DF000B11DD2CF1F920F920FB60F9211248F9375
:100E00000FB6F894A8958091600088618093600087
:100E1000109260000FBE8F910F900FBE0F901F9029
:100E20001895CF93DF93CDB7DEB72E970FB6F89412
:100E3000DEBF0FBECDBF789484B5826084BD84B51B
:100E4000816084BD85B5826085BD85B5816085BDC5
:100E500080916E00816080936E001092810080917D
:100E60008100826080938100809181008160809305
:100E70008100809180008160809380008091B1002A
:100E800084608093B1008091B00081608093B00055
:100E900080917A00846080937A0080917A008260E9
:100EA00080937A0080917A00816080937A008091AB
:100EB0007A00806880937A001092C1008FEF80934F
:100EC00078018093790180937A0180937B018093EC
:100ED0007C0180937D010E94110562E0809189016F
:100EE0000E9444012FB7F894809180019091810174
:100EF000A0918201B09183012FBF805D9740A1092D
:100F0000B10980938D0190938E01A0938F01B093CE
:100F1000900187E38093960100917E0110917F01FB
:100F200060E0F80181810E94440160E0F801808165
:100F30000E94440160E0F80182810E94440185E53D
:100F400091E00E943C0383E491E00E943C0381E332
:100F500091E00E943C038FE191E00E943C038DE010
:100F600091E00E943C0361E089E00E94440161E05D
:100F700088E00E9444010E94CB0529833A834B8379
:100F80005C836D837E83CE0101960E94BF03811135
:100F900002C00E94D9048EE80E94960687FF1BC0FB
:100FA0008EE80E949606182F6EE880917E0190913F
:100FB0007F010E94A105612F6F7740E080917E0143
:100FC00090917F010E947505E0917E01F0917F0173
:100FD00082810E94020480E80E94960687FF1BC05F
:100FE00080E80E949606182F60E880917E0190911B
:100FF0007F010E94A105612F6F7740E080917E0103
:1010000090917F010E947505E0917E01F0917F0132
:1010100082810E9402048E01095F1F4FCE01059656
:101020009E878D8766246394712C6C0E7D1E96E0DE
:10103000690E711C35E0F32E0E94CB052F83388793
:1010400049875A876B877C87D12C30E020E050E0BD
:1010500040E064E070E08FE691E00E94710385E576
:1010600091E00E94EB0283E491E00E94EB0281E3B5
:1010700091E00E94EB028FE191E00E94EB028DE093
:1010800091E00E94EB0285E591E00E94E602882350
:1010900079F110926E0110926D0180916D01909125
:1010A0006E01892B09F050C0F1E0FD1508F44CC029
:1010B00060E089E00E94160160E088E00E9416016D
:1010C000D39484E0D812C1CF80916D0190916E01CC
:1010D0008230910509F436C1E8F5009709F4A4C0FF
:1010E000019709F4FDC010926E0110926D01C7C006
:1010F00083E491E00E94E602E1E0F0E0811115C096
:1011000081E391E00E94E602882339F082E090E0DA
:1011100090936E0180936D01C0CF8FE191E00E94AA
:10112000E602882339F0E3E0F0E0F0936E01E0930B
:101130006D01B3CF8DE091E00E94E602882309F4AF
:10114000ACCF84E090E0E4CF61E089E00E9416013A
:1011500061E0B3CF8330910509F4C1C1049719F65A
:1011600087E480937C0080917A00806480937A0089
:1011700080917A0086FDFCCF8091780060917900A3
:10118000762F682F072E000C880B990B0E94DC0C21
:1011900020E030E040E251E40E94680D20E030ECB5
:1011A0004FE754E40E94320C1B012C015E01F2E077
:1011B000AF0EB11CCE0101966C01C201B1010E94BB
:1011C000AB0CF50161935F0170E090E080E00E945C
:1011D000DC0C9B01AC01C201B1010E94C50B20E0F7
:1011E00030E040E251E40E94680D1B012C018D8526
:1011F0009E858A159B0509F780E889838D8386E79C
:101200008E8384E080930101F0920001F6018191C8
:101210006F010E940A0480910001815080930001B7
:101220006C147D0499F72BC0C8010E94BF03811183
:1012300003C00E94D90423C08A852AE0622F0E943D
:101240007D0B89839A838B850E947D0B8B839C8386
:101250008C850E947D0B8D839E83F0920001FE01A0
:1012600031966F01F60181916F010E940A0480910D
:1012700000018150809300010C151D0599F78091A4
:101280000101863058F4E0910101F0E0E959FE4F88
:1012900080818250808386E08093010180910201E9
:1012A000863058F4E0910201F0E0E959FE4F808168
:1012B0008250808386E08093020186E0E7E6F1E0D9
:1012C000A8E7B1E001900D928A95E1F70E9411051F
:1012D00080E090E0892B09F4AFCE0E940000AACEF6
:1012E000C8010E94BF03882309F4A3CF89852AE09F
:1012F000622F0E947D0B89839A8388850E947D0BD3
:101300008B839C838F8190E06AE070E00E94970B52
:101310006D838E83D092010182E080930201F0926E
:101320000001CE0101966C01F60181916F010E94CE
:101330000A0480910001815080930001C016D106FB
:1013400099F79DCF0E94D701882309F472CF80912D
:101350008A018C3009F48CC048F48B3001F1812C67
:10136000912C90ECA92E9FE7B92E43C08551823075
:10137000B0F750908601652D70E0762F66276627BE
:101380007F7780918701682B90E080E00E94DA0CE3
:101390002DEC3CEC4CEC5DE30E94680D85C0609147
:1013A000860170E090E080E00E94DA0C4B015C0165
:1013B0005090870157FE0AC0AC019B0160E070E0CD
:1013C00080E89FEB0E94C50B4B015C01652D6F709F
:1013D00070E090E080E00E94DC0C2DEC3CEC4CECEA
:1013E0005DE30E94680DA50194010E94C60B4B01AC
:1013F0005C01A5019401C501B4010E94D50D8111C4
:1014000018CFC501B4010E94A40C262F80E889835F
:1014100027FF53C08DE2273F0CF080E88A838DE2DE
:10142000273F2CF4822F6AE00E94890B81958B83E1
:10143000273F0CF052C0822F6AE00E94890B9195E1
:101440009C838AE28D8383E48E83F0920001CE0137
:1014500001966C01F60181916F010E940A0480914E
:1014600000018150809300010C151D0599F707CFED
:1014700050908601652D70E090E080E00E94DA0CCB
:101480004B015C01609187016F7070E090E080E03B
:101490000E94DC0C2DEC3CEC4CEC5DE30E94680DF2
:1014A000A50194010E94C60B4B015C0157FEA1CF20
:1014B000B7FAB094B7F8B0949CCF8A8380E82A300A
:1014C00024F0822F6AE00E947D0B8B832A302CF05F
:1014D000822F6AE00E94890BB3CF90E0B1CF0E94C7
:1014E000D7018823B9F180918A018B3030F08D309B
:1014F00058F08551823008F442C0A12CB12C80EC08
:10150000C82E8FE7D82E1EC06091850170E090E054
:1015100080E00E94DC0C2DEC3CEC4CEC5DE30E9486
:10152000680D5B016C016091840170E090E080E0E7
:101530000E94DC0C9B01AC01C601B5010E94C60BE8
:101540005B016C01A6019501C601B5010E94D50D94
:10155000882339F10E94D904F0920001CE0101964E
:101560006C01F60181916F010E940A0480910001D3
:10157000815080930001C016D10699F780CE60910A
:1015800084017091850176276727762790E080E0B7
:101590000E94DA0C2DEC3CEC4CEC5DE30E94680DF3
:1015A000CFCFC601B5010E94AB0C262F80E82A30B0
:1015B00020F0822F6AE00E947D0B898390E02A3020
:1015C00020F0822F6AE00E947D0B9A8380E88B8353
:1015D0008AE28C838FE28D838FE68E83BDCFCF939B
:1015E000EAE0F1E085E08083C6E0C18387E08283A2
:1015F000F0937F01E0937E01E5E7F1E083E08083F3
:1016000082E0818384E0828361E083E00E94440180
:1016100061E082E00E94440161E084E00E944401B4
:1016200060E083E00E94160160E082E00E94160103
:1016300060E084E00E941601E8E7F1E0DF011D921E
:10164000CA95E9F70E941105A4E8B1E08AE0159671
:101650008C9315978BE016968C931697EAE9F0E039
:10166000E4911796EC931797E6E8F0E0E49118966A
:10167000EC93189740E85EE360E070E01D964D93B0
:101680005D936D937C935097E5E5F1E08EE0808368
:1016900049E150E060E070E04183528363837483EA
:1016A00081E085838683E3E4F1E09FE090834183DA
:1016B00052836383748385838683E1E3F1E090E161
:1016C0009083418352836383748385838683EFE1B0
:1016D000F1E091E190834183528363837483858336
:1016E0008683EDE0F1E093E190834183528363834D
:1016F000748385838683CF910895991B79E004C014
:10170000991F961708F0961B881F7A95C9F7809540
:10171000089587FB082E062687FD819567FD619554
:101720000E947D0B0EF4919507FC81950895AA1BEC
:10173000BB1B51E107C0AA1FBB1FA617B70710F0BC
:10174000A61BB70B881F991F5A95A9F780959095EE
:10175000BC01CD01089597FB072E16F4009407D025
:1017600077FD09D00E94970B07FC05D03EF49095B9
:1017700081959F4F0895709561957F4F0895EE0F65
:10178000FF1F0590F491E02D09945058BB27AA271C
:101790000E94DD0B0C942E0D0E94200D38F00E944B
:1017A000270D20F039F49F3F19F426F40C941D0DF9
:1017B0000EF4E095E7FB0C94170DE92F0E943F0D06
:1017C00058F3BA17620773078407950720F079F476
:1017D000A6F50C94610D0EF4E0950B2EBA2FA02DFA
:1017E0000B01B90190010C01CA01A0011124FF27CE
:1017F000591B99F0593F50F4503E68F11A16F040C9
:10180000A22F232F342F4427585FF3CF46953795C7
:101810002795A795F0405395C9F77EF41F16BA0B8C
:10182000620B730B840BBAF09150A1F0FF0FBB1F3A
:10183000661F771F881FC2F70EC0BA0F621F731F83
:10184000841F48F4879577956795B795F7959E3FE0
:1018500008F0B0CF9395880F08F09927EE0F979571
:10186000879508950E94460C0C942E0D0E94270D1A
:1018700058F00E94200D40F029F45F3F29F00C94AD
:10188000170D51110C94620D0C941D0D0E943F0D0B
:1018900068F39923B1F3552391F3951B550BBB279F
:1018A000AA2762177307840738F09F5F5F4F220FE4
:1018B000331F441FAA1FA9F335D00E2E3AF0E0E8DB
:1018C00032D091505040E695001CCAF72BD0FE2F25
:1018D00029D0660F771F881FBB1F261737074807B9
:1018E000AB07B0E809F0BB0B802DBF01FF27935871
:1018F0005F4F3AF09E3F510578F00C94170D0C9411
:10190000620D5F3FE4F3983ED4F386957795679533
:10191000B795F7959F5FC9F7880F911D96958795A5
:1019200097F90895E1E0660F771F881FBB1F6217C4
:1019300073078407BA0720F0621B730B840BBA0B82
:10194000EE1F88F7E09508950E94AB0C6894B111E2
:101950000C94620D08950E94470D88F09F5798F0EF
:10196000B92F9927B751B0F0E1F0660F771F881FA4
:10197000991F1AF0BA95C9F714C0B13091F00E94BE
:10198000610DB1E008950C94610D672F782F8827C1
:10199000B85F39F0B93FCCF3869577956795B395E5
:1019A000D9F73EF490958095709561957F4F8F4F54
:1019B0009F4F0895E89409C097FB3EF49095809559
:1019C000709561957F4F8F4F9F4F9923A9F0F92F05
:1019D00096E9BB279395F695879577956795B79583
:1019E000F111F8CFFAF4BB0F11F460FF1BC06F5F69
:1019F0007F4F8F4F9F4F16C0882311F096E911C07B
:101A0000772321F09EE8872F762F05C0662371F09B
:101A100096E8862F70E060E02AF09A95660F771FAF
:101A2000881FDAF7880F9695879597F9089597F9A3
:101A30009F6780E870E060E008959FEF80EC089574
:101A400000240A941616170618060906089500249D
:101A50000A9412161306140605060895092E039417
:101A6000000C11F4882352F0BB0F40F4BF2B11F48B
:101A700060FF04C06F5F7F4F8F4F9F4F089557FDEA
:101A80009058440F551F59F05F3F71F04795880FEC
:101A900097FB991F61F09F3F79F087950895121683
:101AA00013061406551FF2CF4695F1DF08C016162F
:101AB00017061806991FF1CF8695710561050894E0
:101AC0000895E894BB2766277727CB0197F90895F7
:101AD0000E947B0D0C942E0D0E94200D38F00E9468
:101AE000270D20F0952311F00C94170D0C941D0D6B
:101AF00011240C94620D0E943F0D70F3959FC1F369
:101B0000950F50E0551F629FF001729FBB27F00DAB
:101B1000B11D639FAA27F00DB11DAA1F649F662700
:101B2000B00DA11D661F829F2227B00DA11D621F4F
:101B3000739FB00DA11D621F839FA00D611D221F09
:101B4000749F3327A00D611D231F849F600D211DED
:101B5000822F762F6A2F11249F5750409AF0F1F070
:101B600088234AF0EE0FFF1FBB1F661F771F881FD9
:101B700091505040A9F79E3F510580F00C94170DED
:101B80000C94620D5F3FE4F3983ED4F3869577950D
:101B90006795B795F795E7959F5FC1F7FE2B880F7F
:101BA000911D9695879597F908950E94DA0D880BF7
:101BB000990B0895990F0008550FAA0BE0E8FEEF66
:101BC00016161706E807F907C0F012161306E40701
:101BD000F50798F0621B730B840B950B39F40A26FA
:101BE00061F0232B242B252B21F408950A2609F4D8
:101BF000A140A6958FEF811D811D0895F894FFCF18
:0A1C00000506064572726F7280003F
:00000001FF
